{
  "contractName": "RadaNFTToken",
  "abi": [
    {
      "inputs": [],
      "stateMutability": "nonpayable",
      "type": "constructor"
    },
    {
      "anonymous": false,
      "inputs": [
        {
          "indexed": true,
          "internalType": "address",
          "name": "owner",
          "type": "address"
        },
        {
          "indexed": true,
          "internalType": "address",
          "name": "approved",
          "type": "address"
        },
        {
          "indexed": true,
          "internalType": "uint256",
          "name": "tokenId",
          "type": "uint256"
        }
      ],
      "name": "Approval",
      "type": "event"
    },
    {
      "anonymous": false,
      "inputs": [
        {
          "indexed": true,
          "internalType": "address",
          "name": "owner",
          "type": "address"
        },
        {
          "indexed": true,
          "internalType": "address",
          "name": "operator",
          "type": "address"
        },
        {
          "indexed": false,
          "internalType": "bool",
          "name": "approved",
          "type": "bool"
        }
      ],
      "name": "ApprovalForAll",
      "type": "event"
    },
    {
      "anonymous": false,
      "inputs": [
        {
          "indexed": true,
          "internalType": "address",
          "name": "previousOwner",
          "type": "address"
        },
        {
          "indexed": true,
          "internalType": "address",
          "name": "newOwner",
          "type": "address"
        }
      ],
      "name": "OwnershipTransferred",
      "type": "event"
    },
    {
      "anonymous": false,
      "inputs": [
        {
          "indexed": true,
          "internalType": "address",
          "name": "from",
          "type": "address"
        },
        {
          "indexed": true,
          "internalType": "address",
          "name": "to",
          "type": "address"
        },
        {
          "indexed": true,
          "internalType": "uint256",
          "name": "tokenId",
          "type": "uint256"
        }
      ],
      "name": "Transfer",
      "type": "event"
    },
    {
      "inputs": [
        {
          "internalType": "address",
          "name": "to",
          "type": "address"
        },
        {
          "internalType": "uint256",
          "name": "tokenId",
          "type": "uint256"
        }
      ],
      "name": "approve",
      "outputs": [],
      "stateMutability": "nonpayable",
      "type": "function"
    },
    {
      "inputs": [
        {
          "internalType": "address",
          "name": "owner",
          "type": "address"
        }
      ],
      "name": "balanceOf",
      "outputs": [
        {
          "internalType": "uint256",
          "name": "",
          "type": "uint256"
        }
      ],
      "stateMutability": "view",
      "type": "function"
    },
    {
      "inputs": [
        {
          "internalType": "uint256",
          "name": "tokenId",
          "type": "uint256"
        }
      ],
      "name": "getApproved",
      "outputs": [
        {
          "internalType": "address",
          "name": "",
          "type": "address"
        }
      ],
      "stateMutability": "view",
      "type": "function"
    },
    {
      "inputs": [
        {
          "internalType": "address",
          "name": "owner",
          "type": "address"
        },
        {
          "internalType": "address",
          "name": "operator",
          "type": "address"
        }
      ],
      "name": "isApprovedForAll",
      "outputs": [
        {
          "internalType": "bool",
          "name": "",
          "type": "bool"
        }
      ],
      "stateMutability": "view",
      "type": "function"
    },
    {
      "inputs": [],
      "name": "name",
      "outputs": [
        {
          "internalType": "string",
          "name": "",
          "type": "string"
        }
      ],
      "stateMutability": "view",
      "type": "function"
    },
    {
      "inputs": [],
      "name": "owner",
      "outputs": [
        {
          "internalType": "address",
          "name": "",
          "type": "address"
        }
      ],
      "stateMutability": "view",
      "type": "function"
    },
    {
      "inputs": [
        {
          "internalType": "uint256",
          "name": "tokenId",
          "type": "uint256"
        }
      ],
      "name": "ownerOf",
      "outputs": [
        {
          "internalType": "address",
          "name": "",
          "type": "address"
        }
      ],
      "stateMutability": "view",
      "type": "function"
    },
    {
      "inputs": [],
      "name": "renounceOwnership",
      "outputs": [],
      "stateMutability": "nonpayable",
      "type": "function"
    },
    {
      "inputs": [
        {
          "internalType": "address",
          "name": "from",
          "type": "address"
        },
        {
          "internalType": "address",
          "name": "to",
          "type": "address"
        },
        {
          "internalType": "uint256",
          "name": "tokenId",
          "type": "uint256"
        }
      ],
      "name": "safeTransferFrom",
      "outputs": [],
      "stateMutability": "nonpayable",
      "type": "function"
    },
    {
      "inputs": [
        {
          "internalType": "address",
          "name": "from",
          "type": "address"
        },
        {
          "internalType": "address",
          "name": "to",
          "type": "address"
        },
        {
          "internalType": "uint256",
          "name": "tokenId",
          "type": "uint256"
        },
        {
          "internalType": "bytes",
          "name": "_data",
          "type": "bytes"
        }
      ],
      "name": "safeTransferFrom",
      "outputs": [],
      "stateMutability": "nonpayable",
      "type": "function"
    },
    {
      "inputs": [
        {
          "internalType": "address",
          "name": "operator",
          "type": "address"
        },
        {
          "internalType": "bool",
          "name": "approved",
          "type": "bool"
        }
      ],
      "name": "setApprovalForAll",
      "outputs": [],
      "stateMutability": "nonpayable",
      "type": "function"
    },
    {
      "inputs": [
        {
          "internalType": "bytes4",
          "name": "interfaceId",
          "type": "bytes4"
        }
      ],
      "name": "supportsInterface",
      "outputs": [
        {
          "internalType": "bool",
          "name": "",
          "type": "bool"
        }
      ],
      "stateMutability": "view",
      "type": "function"
    },
    {
      "inputs": [],
      "name": "symbol",
      "outputs": [
        {
          "internalType": "string",
          "name": "",
          "type": "string"
        }
      ],
      "stateMutability": "view",
      "type": "function"
    },
    {
      "inputs": [
        {
          "internalType": "uint256",
          "name": "tokenId",
          "type": "uint256"
        }
      ],
      "name": "tokenURI",
      "outputs": [
        {
          "internalType": "string",
          "name": "",
          "type": "string"
        }
      ],
      "stateMutability": "view",
      "type": "function"
    },
    {
      "inputs": [
        {
          "internalType": "address",
          "name": "from",
          "type": "address"
        },
        {
          "internalType": "address",
          "name": "to",
          "type": "address"
        },
        {
          "internalType": "uint256",
          "name": "tokenId",
          "type": "uint256"
        }
      ],
      "name": "transferFrom",
      "outputs": [],
      "stateMutability": "nonpayable",
      "type": "function"
    },
    {
      "inputs": [
        {
          "internalType": "address",
          "name": "newOwner",
          "type": "address"
        }
      ],
      "name": "transferOwnership",
      "outputs": [],
      "stateMutability": "nonpayable",
      "type": "function"
    },
    {
      "inputs": [
        {
          "internalType": "address",
          "name": "user",
          "type": "address"
        }
      ],
      "name": "addWhitelister",
      "outputs": [],
      "stateMutability": "nonpayable",
      "type": "function"
    },
    {
      "inputs": [
        {
          "internalType": "address",
          "name": "user",
          "type": "address"
        }
      ],
      "name": "removeWhitelister",
      "outputs": [],
      "stateMutability": "nonpayable",
      "type": "function"
    },
    {
      "inputs": [
        {
          "internalType": "address",
          "name": "user",
          "type": "address"
        }
      ],
      "name": "isWhitelister",
      "outputs": [
        {
          "internalType": "bool",
          "name": "",
          "type": "bool"
        }
      ],
      "stateMutability": "view",
      "type": "function"
    },
    {
      "inputs": [
        {
          "internalType": "string",
          "name": "tokenURI",
          "type": "string"
        }
      ],
      "name": "mint",
      "outputs": [],
      "stateMutability": "nonpayable",
      "type": "function"
    },
    {
      "inputs": [
        {
          "internalType": "string",
          "name": "tokenURI",
          "type": "string"
        },
        {
          "internalType": "uint256",
          "name": "amount",
          "type": "uint256"
        }
      ],
      "name": "batchMint",
      "outputs": [],
      "stateMutability": "nonpayable",
      "type": "function"
    },
    {
      "inputs": [
        {
          "internalType": "uint256",
          "name": "tokenId",
          "type": "uint256"
        }
      ],
      "name": "burn",
      "outputs": [],
      "stateMutability": "nonpayable",
      "type": "function"
    }
  ],
  "bytecode": "0x60806040523480156200001157600080fd5b506040518060400160405280600e81526020017f4d696e7461626c6520546f6b656e0000000000000000000000000000000000008152506040518060400160405280600481526020017f4d494e5400000000000000000000000000000000000000000000000000000000815250816000908051906020019062000096929190620001a6565b508060019080519060200190620000af929190620001a6565b505050620000d2620000c6620000d860201b60201c565b620000e060201b60201c565b620002bb565b600033905090565b6000600760009054906101000a900473ffffffffffffffffffffffffffffffffffffffff16905081600760006101000a81548173ffffffffffffffffffffffffffffffffffffffff021916908373ffffffffffffffffffffffffffffffffffffffff1602179055508173ffffffffffffffffffffffffffffffffffffffff168173ffffffffffffffffffffffffffffffffffffffff167f8be0079c531659141344cd1fd0a4f28419497f9722a3daafe3b4186f6b6457e060405160405180910390a35050565b828054620001b49062000256565b90600052602060002090601f016020900481019282620001d8576000855562000224565b82601f10620001f357805160ff191683800117855562000224565b8280016001018555821562000224579182015b828111156200022357825182559160200191906001019062000206565b5b50905062000233919062000237565b5090565b5b808211156200025257600081600090555060010162000238565b5090565b600060028204905060018216806200026f57607f821691505b602082108114156200028657620002856200028c565b5b50919050565b7f4e487b7100000000000000000000000000000000000000000000000000000000600052602260045260246000fd5b61361a80620002cb6000396000f3fe608060405234801561001057600080fd5b50600436106101425760003560e01c80637d0c269f116100b8578063b88d4fde1161007c578063b88d4fde1461035f578063c87b56dd1461037b578063d85d3d27146103ab578063e985e9c5146103c7578063eaf9144a146103f7578063f2fde38b1461041357610142565b80637d0c269f146102bb57806382c3f79c146102eb5780638da5cb5b1461030757806395d89b4114610325578063a22cb4651461034357610142565b806342842e0e1161010a57806342842e0e146101fd57806342966c68146102195780636352211e1461023557806370a0823114610265578063715018a6146102955780637cc918d11461029f57610142565b806301ffc9a71461014757806306fdde0314610177578063081812fc14610195578063095ea7b3146101c557806323b872dd146101e1575b600080fd5b610161600480360381019061015c91906125ad565b61042f565b60405161016e9190612f12565b60405180910390f35b61017f610511565b60405161018c9190612f2d565b60405180910390f35b6101af60048036038101906101aa9190612694565b6105a3565b6040516101bc9190612eab565b60405180910390f35b6101df60048036038101906101da9190612571565b610628565b005b6101fb60048036038101906101f6919061246b565b610740565b005b6102176004803603810190610212919061246b565b6107a0565b005b610233600480360381019061022e9190612694565b6107c0565b005b61024f600480360381019061024a9190612694565b610866565b60405161025c9190612eab565b60405180910390f35b61027f600480360381019061027a9190612406565b610918565b60405161028c91906131af565b60405180910390f35b61029d6109d0565b005b6102b960048036038101906102b49190612640565b610a58565b005b6102d560048036038101906102d09190612406565b610b48565b6040516102e29190612f12565b60405180910390f35b61030560048036038101906103009190612406565b610b9e565b005b61030f610c75565b60405161031c9190612eab565b60405180910390f35b61032d610c9f565b60405161033a9190612f2d565b60405180910390f35b61035d60048036038101906103589190612535565b610d31565b005b610379600480360381019061037491906124ba565b610eb2565b005b61039560048036038101906103909190612694565b610f14565b6040516103a29190612f2d565b60405180910390f35b6103c560048036038101906103c091906125ff565b611066565b005b6103e160048036038101906103dc919061242f565b611137565b6040516103ee9190612f12565b60405180910390f35b610411600480360381019061040c9190612406565b6111cb565b005b61042d60048036038101906104289190612406565b6112a2565b005b60007f80ac58cd000000000000000000000000000000000000000000000000000000007bffffffffffffffffffffffffffffffffffffffffffffffffffffffff1916827bffffffffffffffffffffffffffffffffffffffffffffffffffffffff191614806104fa57507f5b5e139f000000000000000000000000000000000000000000000000000000007bffffffffffffffffffffffffffffffffffffffffffffffffffffffff1916827bffffffffffffffffffffffffffffffffffffffffffffffffffffffff1916145b8061050a57506105098261139a565b5b9050919050565b6060600080546105209061340f565b80601f016020809104026020016040519081016040528092919081815260200182805461054c9061340f565b80156105995780601f1061056e57610100808354040283529160200191610599565b820191906000526020600020905b81548152906001019060200180831161057c57829003601f168201915b5050505050905090565b60006105ae82611404565b6105ed576040517f08c379a00000000000000000000000000000000000000000000000000000000081526004016105e4906130cf565b60405180910390fd5b6004600083815260200190815260200160002060009054906101000a900473ffffffffffffffffffffffffffffffffffffffff169050919050565b600061063382610866565b90508073ffffffffffffffffffffffffffffffffffffffff168373ffffffffffffffffffffffffffffffffffffffff1614156106a4576040517f08c379a000000000000000000000000000000000000000000000000000000000815260040161069b9061316f565b60405180910390fd5b8073ffffffffffffffffffffffffffffffffffffffff166106c3611470565b73ffffffffffffffffffffffffffffffffffffffff1614806106f257506106f1816106ec611470565b611137565b5b610731576040517f08c379a00000000000000000000000000000000000000000000000000000000081526004016107289061300f565b60405180910390fd5b61073b8383611478565b505050565b61075161074b611470565b82611531565b610790576040517f08c379a00000000000000000000000000000000000000000000000000000000081526004016107879061318f565b60405180910390fd5b61079b83838361160f565b505050565b6107bb83838360405180602001604052806000815250610eb2565b505050565b60011515600960006107d0611470565b73ffffffffffffffffffffffffffffffffffffffff1673ffffffffffffffffffffffffffffffffffffffff16815260200190815260200160002060009054906101000a900460ff1615151461085a576040517f08c379a00000000000000000000000000000000000000000000000000000000081526004016108519061312f565b60405180910390fd5b6108638161186b565b50565b6000806002600084815260200190815260200160002060009054906101000a900473ffffffffffffffffffffffffffffffffffffffff169050600073ffffffffffffffffffffffffffffffffffffffff168173ffffffffffffffffffffffffffffffffffffffff16141561090f576040517f08c379a00000000000000000000000000000000000000000000000000000000081526004016109069061304f565b60405180910390fd5b80915050919050565b60008073ffffffffffffffffffffffffffffffffffffffff168273ffffffffffffffffffffffffffffffffffffffff161415610989576040517f08c379a00000000000000000000000000000000000000000000000000000000081526004016109809061302f565b60405180910390fd5b600360008373ffffffffffffffffffffffffffffffffffffffff1673ffffffffffffffffffffffffffffffffffffffff168152602001908152602001600020549050919050565b6109d8611470565b73ffffffffffffffffffffffffffffffffffffffff166109f6610c75565b73ffffffffffffffffffffffffffffffffffffffff1614610a4c576040517f08c379a0000000000000000000000000000000000000000000000000000000008152600401610a43906130ef565b60405180910390fd5b610a5660006118be565b565b6001151560096000610a68611470565b73ffffffffffffffffffffffffffffffffffffffff1673ffffffffffffffffffffffffffffffffffffffff16815260200190815260200160002060009054906101000a900460ff16151514610af2576040517f08c379a0000000000000000000000000000000000000000000000000000000008152600401610ae99061312f565b60405180910390fd5b60005b818111610b4357610b066008611984565b6000610b12600861199a565b9050610b25610b1f611470565b826119a8565b610b2f81856119c6565b508080610b3b90613441565b915050610af5565b505050565b6000600960008373ffffffffffffffffffffffffffffffffffffffff1673ffffffffffffffffffffffffffffffffffffffff16815260200190815260200160002060009054906101000a900460ff169050919050565b610ba6611470565b73ffffffffffffffffffffffffffffffffffffffff16610bc4610c75565b73ffffffffffffffffffffffffffffffffffffffff1614610c1a576040517f08c379a0000000000000000000000000000000000000000000000000000000008152600401610c11906130ef565b60405180910390fd5b6000600960008373ffffffffffffffffffffffffffffffffffffffff1673ffffffffffffffffffffffffffffffffffffffff16815260200190815260200160002060006101000a81548160ff02191690831515021790555050565b6000600760009054906101000a900473ffffffffffffffffffffffffffffffffffffffff16905090565b606060018054610cae9061340f565b80601f0160208091040260200160405190810160405280929190818152602001828054610cda9061340f565b8015610d275780601f10610cfc57610100808354040283529160200191610d27565b820191906000526020600020905b815481529060010190602001808311610d0a57829003601f168201915b5050505050905090565b610d39611470565b73ffffffffffffffffffffffffffffffffffffffff168273ffffffffffffffffffffffffffffffffffffffff161415610da7576040517f08c379a0000000000000000000000000000000000000000000000000000000008152600401610d9e90612fcf565b60405180910390fd5b8060056000610db4611470565b73ffffffffffffffffffffffffffffffffffffffff1673ffffffffffffffffffffffffffffffffffffffff16815260200190815260200160002060008473ffffffffffffffffffffffffffffffffffffffff1673ffffffffffffffffffffffffffffffffffffffff16815260200190815260200160002060006101000a81548160ff0219169083151502179055508173ffffffffffffffffffffffffffffffffffffffff16610e61611470565b73ffffffffffffffffffffffffffffffffffffffff167f17307eab39ab6107e8899845ad3d59bd9653f200f220920489ca2b5937696c3183604051610ea69190612f12565b60405180910390a35050565b610ec3610ebd611470565b83611531565b610f02576040517f08c379a0000000000000000000000000000000000000000000000000000000008152600401610ef99061318f565b60405180910390fd5b610f0e84848484611a3a565b50505050565b6060610f1f82611404565b610f5e576040517f08c379a0000000000000000000000000000000000000000000000000000000008152600401610f55906130af565b60405180910390fd5b6000600660008481526020019081526020016000208054610f7e9061340f565b80601f0160208091040260200160405190810160405280929190818152602001828054610faa9061340f565b8015610ff75780601f10610fcc57610100808354040283529160200191610ff7565b820191906000526020600020905b815481529060010190602001808311610fda57829003601f168201915b505050505090506000611008611a96565b905060008151141561101e578192505050611061565b60008251111561105357808260405160200161103b929190612e87565b60405160208183030381529060405292505050611061565b61105c84611aad565b925050505b919050565b6001151560096000611076611470565b73ffffffffffffffffffffffffffffffffffffffff1673ffffffffffffffffffffffffffffffffffffffff16815260200190815260200160002060009054906101000a900460ff16151514611100576040517f08c379a00000000000000000000000000000000000000000000000000000000081526004016110f79061312f565b60405180910390fd5b61110a6008611984565b6000611116600861199a565b9050611129611123611470565b826119a8565b61113381836119c6565b5050565b6000600560008473ffffffffffffffffffffffffffffffffffffffff1673ffffffffffffffffffffffffffffffffffffffff16815260200190815260200160002060008373ffffffffffffffffffffffffffffffffffffffff1673ffffffffffffffffffffffffffffffffffffffff16815260200190815260200160002060009054906101000a900460ff16905092915050565b6111d3611470565b73ffffffffffffffffffffffffffffffffffffffff166111f1610c75565b73ffffffffffffffffffffffffffffffffffffffff1614611247576040517f08c379a000000000000000000000000000000000000000000000000000000000815260040161123e906130ef565b60405180910390fd5b6001600960008373ffffffffffffffffffffffffffffffffffffffff1673ffffffffffffffffffffffffffffffffffffffff16815260200190815260200160002060006101000a81548160ff02191690831515021790555050565b6112aa611470565b73ffffffffffffffffffffffffffffffffffffffff166112c8610c75565b73ffffffffffffffffffffffffffffffffffffffff161461131e576040517f08c379a0000000000000000000000000000000000000000000000000000000008152600401611315906130ef565b60405180910390fd5b600073ffffffffffffffffffffffffffffffffffffffff168173ffffffffffffffffffffffffffffffffffffffff16141561138e576040517f08c379a000000000000000000000000000000000000000000000000000000000815260040161138590612f6f565b60405180910390fd5b611397816118be565b50565b60007f01ffc9a7000000000000000000000000000000000000000000000000000000007bffffffffffffffffffffffffffffffffffffffffffffffffffffffff1916827bffffffffffffffffffffffffffffffffffffffffffffffffffffffff1916149050919050565b60008073ffffffffffffffffffffffffffffffffffffffff166002600084815260200190815260200160002060009054906101000a900473ffffffffffffffffffffffffffffffffffffffff1673ffffffffffffffffffffffffffffffffffffffff1614159050919050565b600033905090565b816004600083815260200190815260200160002060006101000a81548173ffffffffffffffffffffffffffffffffffffffff021916908373ffffffffffffffffffffffffffffffffffffffff160217905550808273ffffffffffffffffffffffffffffffffffffffff166114eb83610866565b73ffffffffffffffffffffffffffffffffffffffff167f8c5be1e5ebec7d5bd14f71427d1e84f3dd0314c0f7b2291e5b200ac8c7c3b92560405160405180910390a45050565b600061153c82611404565b61157b576040517f08c379a000000000000000000000000000000000000000000000000000000000815260040161157290612fef565b60405180910390fd5b600061158683610866565b90508073ffffffffffffffffffffffffffffffffffffffff168473ffffffffffffffffffffffffffffffffffffffff1614806115f557508373ffffffffffffffffffffffffffffffffffffffff166115dd846105a3565b73ffffffffffffffffffffffffffffffffffffffff16145b8061160657506116058185611137565b5b91505092915050565b8273ffffffffffffffffffffffffffffffffffffffff1661162f82610866565b73ffffffffffffffffffffffffffffffffffffffff1614611685576040517f08c379a000000000000000000000000000000000000000000000000000000000815260040161167c9061310f565b60405180910390fd5b600073ffffffffffffffffffffffffffffffffffffffff168273ffffffffffffffffffffffffffffffffffffffff1614156116f5576040517f08c379a00000000000000000000000000000000000000000000000000000000081526004016116ec90612faf565b60405180910390fd5b611700838383611b54565b61170b600082611478565b6001600360008573ffffffffffffffffffffffffffffffffffffffff1673ffffffffffffffffffffffffffffffffffffffff168152602001908152602001600020600082825461175b9190613325565b925050819055506001600360008473ffffffffffffffffffffffffffffffffffffffff1673ffffffffffffffffffffffffffffffffffffffff16815260200190815260200160002060008282546117b2919061329e565b92505081905550816002600083815260200190815260200160002060006101000a81548173ffffffffffffffffffffffffffffffffffffffff021916908373ffffffffffffffffffffffffffffffffffffffff160217905550808273ffffffffffffffffffffffffffffffffffffffff168473ffffffffffffffffffffffffffffffffffffffff167fddf252ad1be2c89b69c2b068fc378daa952ba7f163c4a11628f55a4df523b3ef60405160405180910390a4505050565b61187481611b59565b60006006600083815260200190815260200160002080546118949061340f565b9050146118bb576006600082815260200190815260200160002060006118ba91906121ea565b5b50565b6000600760009054906101000a900473ffffffffffffffffffffffffffffffffffffffff16905081600760006101000a81548173ffffffffffffffffffffffffffffffffffffffff021916908373ffffffffffffffffffffffffffffffffffffffff1602179055508173ffffffffffffffffffffffffffffffffffffffff168173ffffffffffffffffffffffffffffffffffffffff167f8be0079c531659141344cd1fd0a4f28419497f9722a3daafe3b4186f6b6457e060405160405180910390a35050565b6001816000016000828254019250508190555050565b600081600001549050919050565b6119c2828260405180602001604052806000815250611c6a565b5050565b6119cf82611404565b611a0e576040517f08c379a0000000000000000000000000000000000000000000000000000000008152600401611a059061306f565b60405180910390fd5b80600660008481526020019081526020016000209080519060200190611a3592919061222a565b505050565b611a4584848461160f565b611a5184848484611cc5565b611a90576040517f08c379a0000000000000000000000000000000000000000000000000000000008152600401611a8790612f4f565b60405180910390fd5b50505050565b606060405180602001604052806000815250905090565b6060611ab882611404565b611af7576040517f08c379a0000000000000000000000000000000000000000000000000000000008152600401611aee9061314f565b60405180910390fd5b6000611b01611a96565b90506000815111611b215760405180602001604052806000815250611b4c565b80611b2b84611e5c565b604051602001611b3c929190612e87565b6040516020818303038152906040525b915050919050565b505050565b6000611b6482610866565b9050611b7281600084611b54565b611b7d600083611478565b6001600360008373ffffffffffffffffffffffffffffffffffffffff1673ffffffffffffffffffffffffffffffffffffffff1681526020019081526020016000206000828254611bcd9190613325565b925050819055506002600083815260200190815260200160002060006101000a81549073ffffffffffffffffffffffffffffffffffffffff021916905581600073ffffffffffffffffffffffffffffffffffffffff168273ffffffffffffffffffffffffffffffffffffffff167fddf252ad1be2c89b69c2b068fc378daa952ba7f163c4a11628f55a4df523b3ef60405160405180910390a45050565b611c748383612009565b611c816000848484611cc5565b611cc0576040517f08c379a0000000000000000000000000000000000000000000000000000000008152600401611cb790612f4f565b60405180910390fd5b505050565b6000611ce68473ffffffffffffffffffffffffffffffffffffffff166121d7565b15611e4f578373ffffffffffffffffffffffffffffffffffffffff1663150b7a02611d0f611470565b8786866040518563ffffffff1660e01b8152600401611d319493929190612ec6565b602060405180830381600087803b158015611d4b57600080fd5b505af1925050508015611d7c57506040513d601f19601f82011682018060405250810190611d7991906125d6565b60015b611dff573d8060008114611dac576040519150601f19603f3d011682016040523d82523d6000602084013e611db1565b606091505b50600081511415611df7576040517f08c379a0000000000000000000000000000000000000000000000000000000008152600401611dee90612f4f565b60405180910390fd5b805181602001fd5b63150b7a0260e01b7bffffffffffffffffffffffffffffffffffffffffffffffffffffffff1916817bffffffffffffffffffffffffffffffffffffffffffffffffffffffff191614915050611e54565b600190505b949350505050565b60606000821415611ea4576040518060400160405280600181526020017f30000000000000000000000000000000000000000000000000000000000000008152509050612004565b600082905060005b60008214611ed6578080611ebf90613441565b915050600a82611ecf91906132f4565b9150611eac565b60008167ffffffffffffffff811115611f18577f4e487b7100000000000000000000000000000000000000000000000000000000600052604160045260246000fd5b6040519080825280601f01601f191660200182016040528015611f4a5781602001600182028036833780820191505090505b5090505b60008514611ffd57600182611f639190613325565b9150600a85611f72919061348a565b6030611f7e919061329e565b60f81b818381518110611fba577f4e487b7100000000000000000000000000000000000000000000000000000000600052603260045260246000fd5b60200101907effffffffffffffffffffffffffffffffffffffffffffffffffffffffffffff1916908160001a905350600a85611ff691906132f4565b9450611f4e565b8093505050505b919050565b600073ffffffffffffffffffffffffffffffffffffffff168273ffffffffffffffffffffffffffffffffffffffff161415612079576040517f08c379a00000000000000000000000000000000000000000000000000000000081526004016120709061308f565b60405180910390fd5b61208281611404565b156120c2576040517f08c379a00000000000000000000000000000000000000000000000000000000081526004016120b990612f8f565b60405180910390fd5b6120ce60008383611b54565b6001600360008473ffffffffffffffffffffffffffffffffffffffff1673ffffffffffffffffffffffffffffffffffffffff168152602001908152602001600020600082825461211e919061329e565b92505081905550816002600083815260200190815260200160002060006101000a81548173ffffffffffffffffffffffffffffffffffffffff021916908373ffffffffffffffffffffffffffffffffffffffff160217905550808273ffffffffffffffffffffffffffffffffffffffff16600073ffffffffffffffffffffffffffffffffffffffff167fddf252ad1be2c89b69c2b068fc378daa952ba7f163c4a11628f55a4df523b3ef60405160405180910390a45050565b600080823b905060008111915050919050565b5080546121f69061340f565b6000825580601f106122085750612227565b601f01602090049060005260206000209081019061222691906122b0565b5b50565b8280546122369061340f565b90600052602060002090601f016020900481019282612258576000855561229f565b82601f1061227157805160ff191683800117855561229f565b8280016001018555821561229f579182015b8281111561229e578251825591602001919060010190612283565b5b5090506122ac91906122b0565b5090565b5b808211156122c95760008160009055506001016122b1565b5090565b60006122e06122db846131fb565b6131ca565b9050828152602081018484840111156122f857600080fd5b6123038482856133cd565b509392505050565b600061231e6123198461322b565b6131ca565b90508281526020810184848401111561233657600080fd5b6123418482856133cd565b509392505050565b60008135905061235881613588565b92915050565b60008135905061236d8161359f565b92915050565b600081359050612382816135b6565b92915050565b600081519050612397816135b6565b92915050565b600082601f8301126123ae57600080fd5b81356123be8482602086016122cd565b91505092915050565b600082601f8301126123d857600080fd5b81356123e884826020860161230b565b91505092915050565b600081359050612400816135cd565b92915050565b60006020828403121561241857600080fd5b600061242684828501612349565b91505092915050565b6000806040838503121561244257600080fd5b600061245085828601612349565b925050602061246185828601612349565b9150509250929050565b60008060006060848603121561248057600080fd5b600061248e86828701612349565b935050602061249f86828701612349565b92505060406124b0868287016123f1565b9150509250925092565b600080600080608085870312156124d057600080fd5b60006124de87828801612349565b94505060206124ef87828801612349565b9350506040612500878288016123f1565b925050606085013567ffffffffffffffff81111561251d57600080fd5b6125298782880161239d565b91505092959194509250565b6000806040838503121561254857600080fd5b600061255685828601612349565b92505060206125678582860161235e565b9150509250929050565b6000806040838503121561258457600080fd5b600061259285828601612349565b92505060206125a3858286016123f1565b9150509250929050565b6000602082840312156125bf57600080fd5b60006125cd84828501612373565b91505092915050565b6000602082840312156125e857600080fd5b60006125f684828501612388565b91505092915050565b60006020828403121561261157600080fd5b600082013567ffffffffffffffff81111561262b57600080fd5b612637848285016123c7565b91505092915050565b6000806040838503121561265357600080fd5b600083013567ffffffffffffffff81111561266d57600080fd5b612679858286016123c7565b925050602061268a858286016123f1565b9150509250929050565b6000602082840312156126a657600080fd5b60006126b4848285016123f1565b91505092915050565b6126c681613359565b82525050565b6126d58161336b565b82525050565b60006126e68261325b565b6126f08185613271565b93506127008185602086016133dc565b61270981613577565b840191505092915050565b600061271f82613266565b6127298185613282565b93506127398185602086016133dc565b61274281613577565b840191505092915050565b600061275882613266565b6127628185613293565b93506127728185602086016133dc565b80840191505092915050565b600061278b603283613282565b91507f4552433732313a207472616e7366657220746f206e6f6e20455243373231526560008301527f63656976657220696d706c656d656e74657200000000000000000000000000006020830152604082019050919050565b60006127f1602683613282565b91507f4f776e61626c653a206e6577206f776e657220697320746865207a65726f206160008301527f64647265737300000000000000000000000000000000000000000000000000006020830152604082019050919050565b6000612857601c83613282565b91507f4552433732313a20746f6b656e20616c7265616479206d696e746564000000006000830152602082019050919050565b6000612897602483613282565b91507f4552433732313a207472616e7366657220746f20746865207a65726f2061646460008301527f72657373000000000000000000000000000000000000000000000000000000006020830152604082019050919050565b60006128fd601983613282565b91507f4552433732313a20617070726f766520746f2063616c6c6572000000000000006000830152602082019050919050565b600061293d602c83613282565b91507f4552433732313a206f70657261746f7220717565727920666f72206e6f6e657860008301527f697374656e7420746f6b656e00000000000000000000000000000000000000006020830152604082019050919050565b60006129a3603883613282565b91507f4552433732313a20617070726f76652063616c6c6572206973206e6f74206f7760008301527f6e6572206e6f7220617070726f76656420666f7220616c6c00000000000000006020830152604082019050919050565b6000612a09602a83613282565b91507f4552433732313a2062616c616e636520717565727920666f7220746865207a6560008301527f726f2061646472657373000000000000000000000000000000000000000000006020830152604082019050919050565b6000612a6f602983613282565b91507f4552433732313a206f776e657220717565727920666f72206e6f6e657869737460008301527f656e7420746f6b656e00000000000000000000000000000000000000000000006020830152604082019050919050565b6000612ad5602e83613282565b91507f45524337323155524953746f726167653a2055524920736574206f66206e6f6e60008301527f6578697374656e7420746f6b656e0000000000000000000000000000000000006020830152604082019050919050565b6000612b3b602083613282565b91507f4552433732313a206d696e7420746f20746865207a65726f20616464726573736000830152602082019050919050565b6000612b7b603183613282565b91507f45524337323155524953746f726167653a2055524920717565727920666f722060008301527f6e6f6e6578697374656e7420746f6b656e0000000000000000000000000000006020830152604082019050919050565b6000612be1602c83613282565b91507f4552433732313a20617070726f76656420717565727920666f72206e6f6e657860008301527f697374656e7420746f6b656e00000000000000000000000000000000000000006020830152604082019050919050565b6000612c47602083613282565b91507f4f776e61626c653a2063616c6c6572206973206e6f7420746865206f776e65726000830152602082019050919050565b6000612c87602983613282565b91507f4552433732313a207472616e73666572206f6620746f6b656e2074686174206960008301527f73206e6f74206f776e00000000000000000000000000000000000000000000006020830152604082019050919050565b6000612ced602783613282565b91507f4f776e61626c653a2063616c6c6572206973206e6f7420696e2074686520776860008301527f6974656c697374000000000000000000000000000000000000000000000000006020830152604082019050919050565b6000612d53602f83613282565b91507f4552433732314d657461646174613a2055524920717565727920666f72206e6f60008301527f6e6578697374656e7420746f6b656e00000000000000000000000000000000006020830152604082019050919050565b6000612db9602183613282565b91507f4552433732313a20617070726f76616c20746f2063757272656e74206f776e6560008301527f72000000000000000000000000000000000000000000000000000000000000006020830152604082019050919050565b6000612e1f603183613282565b91507f4552433732313a207472616e736665722063616c6c6572206973206e6f74206f60008301527f776e6572206e6f7220617070726f7665640000000000000000000000000000006020830152604082019050919050565b612e81816133c3565b82525050565b6000612e93828561274d565b9150612e9f828461274d565b91508190509392505050565b6000602082019050612ec060008301846126bd565b92915050565b6000608082019050612edb60008301876126bd565b612ee860208301866126bd565b612ef56040830185612e78565b8181036060830152612f0781846126db565b905095945050505050565b6000602082019050612f2760008301846126cc565b92915050565b60006020820190508181036000830152612f478184612714565b905092915050565b60006020820190508181036000830152612f688161277e565b9050919050565b60006020820190508181036000830152612f88816127e4565b9050919050565b60006020820190508181036000830152612fa88161284a565b9050919050565b60006020820190508181036000830152612fc88161288a565b9050919050565b60006020820190508181036000830152612fe8816128f0565b9050919050565b6000602082019050818103600083015261300881612930565b9050919050565b6000602082019050818103600083015261302881612996565b9050919050565b60006020820190508181036000830152613048816129fc565b9050919050565b6000602082019050818103600083015261306881612a62565b9050919050565b6000602082019050818103600083015261308881612ac8565b9050919050565b600060208201905081810360008301526130a881612b2e565b9050919050565b600060208201905081810360008301526130c881612b6e565b9050919050565b600060208201905081810360008301526130e881612bd4565b9050919050565b6000602082019050818103600083015261310881612c3a565b9050919050565b6000602082019050818103600083015261312881612c7a565b9050919050565b6000602082019050818103600083015261314881612ce0565b9050919050565b6000602082019050818103600083015261316881612d46565b9050919050565b6000602082019050818103600083015261318881612dac565b9050919050565b600060208201905081810360008301526131a881612e12565b9050919050565b60006020820190506131c46000830184612e78565b92915050565b6000604051905081810181811067ffffffffffffffff821117156131f1576131f0613548565b5b8060405250919050565b600067ffffffffffffffff82111561321657613215613548565b5b601f19601f8301169050602081019050919050565b600067ffffffffffffffff82111561324657613245613548565b5b601f19601f8301169050602081019050919050565b600081519050919050565b600081519050919050565b600082825260208201905092915050565b600082825260208201905092915050565b600081905092915050565b60006132a9826133c3565b91506132b4836133c3565b9250827fffffffffffffffffffffffffffffffffffffffffffffffffffffffffffffffff038211156132e9576132e86134bb565b5b828201905092915050565b60006132ff826133c3565b915061330a836133c3565b92508261331a576133196134ea565b5b828204905092915050565b6000613330826133c3565b915061333b836133c3565b92508282101561334e5761334d6134bb565b5b828203905092915050565b6000613364826133a3565b9050919050565b60008115159050919050565b60007fffffffff0000000000000000000000000000000000000000000000000000000082169050919050565b600073ffffffffffffffffffffffffffffffffffffffff82169050919050565b6000819050919050565b82818337600083830152505050565b60005b838110156133fa5780820151818401526020810190506133df565b83811115613409576000848401525b50505050565b6000600282049050600182168061342757607f821691505b6020821081141561343b5761343a613519565b5b50919050565b600061344c826133c3565b91507fffffffffffffffffffffffffffffffffffffffffffffffffffffffffffffffff82141561347f5761347e6134bb565b5b600182019050919050565b6000613495826133c3565b91506134a0836133c3565b9250826134b0576134af6134ea565b5b828206905092915050565b7f4e487b7100000000000000000000000000000000000000000000000000000000600052601160045260246000fd5b7f4e487b7100000000000000000000000000000000000000000000000000000000600052601260045260246000fd5b7f4e487b7100000000000000000000000000000000000000000000000000000000600052602260045260246000fd5b7f4e487b7100000000000000000000000000000000000000000000000000000000600052604160045260246000fd5b6000601f19601f8301169050919050565b61359181613359565b811461359c57600080fd5b50565b6135a88161336b565b81146135b357600080fd5b50565b6135bf81613377565b81146135ca57600080fd5b50565b6135d6816133c3565b81146135e157600080fd5b5056fea26469706673582212203993acdcdceafdc331a581c29d3de9caa2a3a28963fcc5609b683ddcc889071c64736f6c63430008000033",
  "immutableReferences": {},
  "source": "// SPDX-License-Identifier: MIT\npragma solidity ^0.8.0;\n\nimport \"@openzeppelin/contracts/access/Ownable.sol\";\nimport \"@openzeppelin/contracts/token/ERC721/extensions/ERC721URIStorage.sol\";\nimport \"@openzeppelin/contracts/utils/Context.sol\";\nimport \"@openzeppelin/contracts/utils/Counters.sol\";\n\ncontract RadaNFTToken is ERC721URIStorage, Ownable {\n    using Counters for Counters.Counter;\n    Counters.Counter private _tokenIds;\n\n    mapping(address => bool) private whitelist;\n\n    constructor() ERC721(\"Mintable Token\", \"MINT\") {}\n\n    modifier onlyWhitelister() {\n        require(\n            whitelist[_msgSender()] == true,\n            \"Ownable: caller is not in the whitelist\"\n        );\n        _;\n    }\n\n    function addWhitelister(address user) external onlyOwner {\n        whitelist[user] = true;\n    }\n\n    function removeWhitelister(address user) external onlyOwner {\n        whitelist[user] = false;\n    }\n\n    function isWhitelister(address user) external view returns (bool) {\n        return whitelist[user];\n    }\n\n    function mint(string memory tokenURI) external onlyWhitelister {\n        _tokenIds.increment();\n\n        uint256 newItemId = _tokenIds.current();\n        _safeMint(_msgSender(), newItemId);\n        _setTokenURI(newItemId, tokenURI);\n    }\n\n    function batchMint(string memory tokenURI, uint256 amount)\n        external\n        onlyWhitelister\n    {\n        for (uint256 i = 0; i <= amount; i++) {\n            _tokenIds.increment();\n\n            uint256 newItemId = _tokenIds.current();\n            _safeMint(_msgSender(), newItemId);\n            _setTokenURI(newItemId, tokenURI);\n        }\n    }\n\n    function burn(uint256 tokenId) external onlyWhitelister {\n        _burn(tokenId);\n    }\n}\n",
  "sourcePath": "/Users/khanhtiet/Projects/learning-practices/blockchain/NFT_Campaign/store/contracts/RadaNFTToken.sol",
  "compiler": {
    "name": "solc",
    "version": "0.8.0+commit.c7dfd78e.Emscripten.clang"
  },
  "schemaVersion": "3.4.3",
  "updatedAt": "2021-09-28T18:59:05.086Z",
  "networkType": "ethereum",
  "devdoc": {
    "kind": "dev",
    "methods": {
      "approve(address,uint256)": {
        "details": "See {IERC721-approve}."
      },
      "balanceOf(address)": {
        "details": "See {IERC721-balanceOf}."
      },
      "getApproved(uint256)": {
        "details": "See {IERC721-getApproved}."
      },
      "isApprovedForAll(address,address)": {
        "details": "See {IERC721-isApprovedForAll}."
      },
      "name()": {
        "details": "See {IERC721Metadata-name}."
      },
      "owner()": {
        "details": "Returns the address of the current owner."
      },
      "ownerOf(uint256)": {
        "details": "See {IERC721-ownerOf}."
      },
      "renounceOwnership()": {
        "details": "Leaves the contract without owner. It will not be possible to call `onlyOwner` functions anymore. Can only be called by the current owner. NOTE: Renouncing ownership will leave the contract without an owner, thereby removing any functionality that is only available to the owner."
      },
      "safeTransferFrom(address,address,uint256)": {
        "details": "See {IERC721-safeTransferFrom}."
      },
      "safeTransferFrom(address,address,uint256,bytes)": {
        "details": "See {IERC721-safeTransferFrom}."
      },
      "setApprovalForAll(address,bool)": {
        "details": "See {IERC721-setApprovalForAll}."
      },
      "supportsInterface(bytes4)": {
        "details": "See {IERC165-supportsInterface}."
      },
      "symbol()": {
        "details": "See {IERC721Metadata-symbol}."
      },
      "tokenURI(uint256)": {
        "details": "See {IERC721Metadata-tokenURI}."
      },
      "transferFrom(address,address,uint256)": {
        "details": "See {IERC721-transferFrom}."
      },
      "transferOwnership(address)": {
        "details": "Transfers ownership of the contract to a new account (`newOwner`). Can only be called by the current owner."
      }
    },
    "version": 1
  },
  "userdoc": {
    "kind": "user",
    "methods": {},
    "version": 1
  }
}