{
  "contractName": "Store",
  "abi": [
    {
      "inputs": [
        {
          "internalType": "contract RadaNFTToken",
          "name": "_radaNFTToken",
          "type": "address"
        },
        {
          "internalType": "address",
          "name": "_marketplaceToken",
          "type": "address"
        }
      ],
      "stateMutability": "nonpayable",
      "type": "constructor"
    },
    {
      "anonymous": false,
      "inputs": [
        {
          "indexed": true,
          "internalType": "address",
          "name": "owner",
          "type": "address"
        },
        {
          "indexed": true,
          "internalType": "uint256",
          "name": "nftId",
          "type": "uint256"
        },
        {
          "indexed": false,
          "internalType": "uint256",
          "name": "price",
          "type": "uint256"
        }
      ],
      "name": "Listing",
      "type": "event"
    },
    {
      "anonymous": false,
      "inputs": [
        {
          "indexed": true,
          "internalType": "address",
          "name": "previousOwner",
          "type": "address"
        },
        {
          "indexed": true,
          "internalType": "address",
          "name": "newOwner",
          "type": "address"
        }
      ],
      "name": "OwnershipTransferred",
      "type": "event"
    },
    {
      "anonymous": false,
      "inputs": [
        {
          "indexed": true,
          "internalType": "address",
          "name": "owner",
          "type": "address"
        },
        {
          "indexed": true,
          "internalType": "uint256",
          "name": "nftId",
          "type": "uint256"
        },
        {
          "indexed": false,
          "internalType": "uint256",
          "name": "oldPrice",
          "type": "uint256"
        },
        {
          "indexed": false,
          "internalType": "uint256",
          "name": "newPrice",
          "type": "uint256"
        }
      ],
      "name": "PriceUpdated",
      "type": "event"
    },
    {
      "anonymous": false,
      "inputs": [
        {
          "indexed": true,
          "internalType": "address",
          "name": "previousOwner",
          "type": "address"
        },
        {
          "indexed": true,
          "internalType": "address",
          "name": "newOwner",
          "type": "address"
        },
        {
          "indexed": true,
          "internalType": "uint256",
          "name": "nftId",
          "type": "uint256"
        },
        {
          "indexed": false,
          "internalType": "uint256",
          "name": "listingPrice",
          "type": "uint256"
        }
      ],
      "name": "Purchase",
      "type": "event"
    },
    {
      "anonymous": false,
      "inputs": [
        {
          "indexed": true,
          "internalType": "address",
          "name": "owner",
          "type": "address"
        },
        {
          "indexed": true,
          "internalType": "uint256",
          "name": "nftId",
          "type": "uint256"
        }
      ],
      "name": "Unlisting",
      "type": "event"
    },
    {
      "inputs": [
        {
          "internalType": "uint256",
          "name": "",
          "type": "uint256"
        }
      ],
      "name": "itemPrices",
      "outputs": [
        {
          "internalType": "uint256",
          "name": "",
          "type": "uint256"
        }
      ],
      "stateMutability": "view",
      "type": "function",
      "constant": true
    },
    {
      "inputs": [],
      "name": "marketplaceToken",
      "outputs": [
        {
          "internalType": "address",
          "name": "",
          "type": "address"
        }
      ],
      "stateMutability": "view",
      "type": "function",
      "constant": true
    },
    {
      "inputs": [],
      "name": "owner",
      "outputs": [
        {
          "internalType": "address",
          "name": "",
          "type": "address"
        }
      ],
      "stateMutability": "view",
      "type": "function",
      "constant": true
    },
    {
      "inputs": [],
      "name": "radaNFTToken",
      "outputs": [
        {
          "internalType": "contract RadaNFTToken",
          "name": "",
          "type": "address"
        }
      ],
      "stateMutability": "view",
      "type": "function",
      "constant": true
    },
    {
      "inputs": [],
      "name": "renounceOwnership",
      "outputs": [],
      "stateMutability": "nonpayable",
      "type": "function"
    },
    {
      "inputs": [
        {
          "internalType": "address",
          "name": "newOwner",
          "type": "address"
        }
      ],
      "name": "transferOwnership",
      "outputs": [],
      "stateMutability": "nonpayable",
      "type": "function"
    },
    {
      "inputs": [
        {
          "internalType": "uint256",
          "name": "_nftId",
          "type": "uint256"
        },
        {
          "internalType": "uint256",
          "name": "_price",
          "type": "uint256"
        }
      ],
      "name": "listing",
      "outputs": [],
      "stateMutability": "nonpayable",
      "type": "function"
    },
    {
      "inputs": [
        {
          "internalType": "uint256",
          "name": "_nftId",
          "type": "uint256"
        }
      ],
      "name": "unlisting",
      "outputs": [],
      "stateMutability": "nonpayable",
      "type": "function"
    },
    {
      "inputs": [
        {
          "internalType": "uint256",
          "name": "_nftId",
          "type": "uint256"
        }
      ],
      "name": "buy",
      "outputs": [],
      "stateMutability": "nonpayable",
      "type": "function"
    },
    {
      "inputs": [
        {
          "internalType": "uint256",
          "name": "_nftId",
          "type": "uint256"
        },
        {
          "internalType": "uint256",
          "name": "_price",
          "type": "uint256"
        }
      ],
      "name": "updatePrice",
      "outputs": [],
      "stateMutability": "nonpayable",
      "type": "function"
    }
  ],
  "bytecode": "0x60806040523480156200001157600080fd5b5060405162001435380380620014358339818101604052810190620000379190620001e2565b620000576200004b620000e860201b60201c565b620000f060201b60201c565b6001808190555081600260006101000a81548173ffffffffffffffffffffffffffffffffffffffff021916908373ffffffffffffffffffffffffffffffffffffffff16021790555080600360006101000a81548173ffffffffffffffffffffffffffffffffffffffff021916908373ffffffffffffffffffffffffffffffffffffffff16021790555050506200029f565b600033905090565b60008060009054906101000a900473ffffffffffffffffffffffffffffffffffffffff169050816000806101000a81548173ffffffffffffffffffffffffffffffffffffffff021916908373ffffffffffffffffffffffffffffffffffffffff1602179055508173ffffffffffffffffffffffffffffffffffffffff168173ffffffffffffffffffffffffffffffffffffffff167f8be0079c531659141344cd1fd0a4f28419497f9722a3daafe3b4186f6b6457e060405160405180910390a35050565b600081519050620001c5816200026b565b92915050565b600081519050620001dc8162000285565b92915050565b60008060408385031215620001f657600080fd5b60006200020685828601620001cb565b92505060206200021985828601620001b4565b9150509250929050565b600062000230826200024b565b9050919050565b6000620002448262000223565b9050919050565b600073ffffffffffffffffffffffffffffffffffffffff82169050919050565b620002768162000223565b81146200028257600080fd5b50565b620002908162000237565b81146200029c57600080fd5b50565b61118680620002af6000396000f3fe608060405234801561001057600080fd5b506004361061009e5760003560e01c80638da5cb5b116100665780638da5cb5b14610121578063ba5fb8281461013f578063bf91ad9e1461015b578063d96a094a1461018b578063f2fde38b146101a75761009e565b8063112206ea146100a3578063715018a6146100c15780637ad3def8146100cb5780637f6d6df9146100e957806382367b2d14610105575b600080fd5b6100ab6101c3565b6040516100b89190610fcf565b60405180910390f35b6100c96101e9565b005b6100d3610271565b6040516100e09190610f7d565b60405180910390f35b61010360048036038101906100fe9190610e2e565b610297565b005b61011f600480360381019061011a9190610e2e565b61053c565b005b6101296106c1565b6040516101369190610f7d565b60405180910390f35b61015960048036038101906101549190610e05565b6106ea565b005b61017560048036038101906101709190610e05565b6108df565b604051610182919061104a565b60405180910390f35b6101a560048036038101906101a09190610e05565b6108f7565b005b6101c160048036038101906101bc9190610d8a565b610996565b005b600260009054906101000a900473ffffffffffffffffffffffffffffffffffffffff1681565b6101f1610a8e565b73ffffffffffffffffffffffffffffffffffffffff1661020f6106c1565b73ffffffffffffffffffffffffffffffffffffffff1614610265576040517f08c379a000000000000000000000000000000000000000000000000000000000815260040161025c9061102a565b60405180910390fd5b61026f6000610a96565b565b600360009054906101000a900473ffffffffffffffffffffffffffffffffffffffff1681565b61029f610a8e565b73ffffffffffffffffffffffffffffffffffffffff166102bd6106c1565b73ffffffffffffffffffffffffffffffffffffffff1614610313576040517f08c379a000000000000000000000000000000000000000000000000000000000815260040161030a9061102a565b60405180910390fd5b61031b610a8e565b73ffffffffffffffffffffffffffffffffffffffff16600260009054906101000a900473ffffffffffffffffffffffffffffffffffffffff1673ffffffffffffffffffffffffffffffffffffffff16636352211e846040518263ffffffff1660e01b815260040161038c919061104a565b60206040518083038186803b1580156103a457600080fd5b505afa1580156103b8573d6000803e3d6000fd5b505050506040513d601f19601f820116820180604052508101906103dc9190610db3565b73ffffffffffffffffffffffffffffffffffffffff1614610432576040517f08c379a00000000000000000000000000000000000000000000000000000000081526004016104299061100a565b60405180910390fd5b600260009054906101000a900473ffffffffffffffffffffffffffffffffffffffff1673ffffffffffffffffffffffffffffffffffffffff166323b872dd6104786106c1565b30856040518463ffffffff1660e01b815260040161049893929190610f98565b600060405180830381600087803b1580156104b257600080fd5b505af11580156104c6573d6000803e3d6000fd5b50505050806004600084815260200190815260200160002081905550816104eb6106c1565b73ffffffffffffffffffffffffffffffffffffffff167f6935191bc626032d8c74ced321b2d6a62df2578bf60599625cb4f59d51e3849f83604051610530919061104a565b60405180910390a35050565b610544610a8e565b73ffffffffffffffffffffffffffffffffffffffff166105626106c1565b73ffffffffffffffffffffffffffffffffffffffff16146105b8576040517f08c379a00000000000000000000000000000000000000000000000000000000081526004016105af9061102a565b60405180910390fd5b6105c06106c1565b73ffffffffffffffffffffffffffffffffffffffff166105de610a8e565b73ffffffffffffffffffffffffffffffffffffffff1614610634576040517f08c379a000000000000000000000000000000000000000000000000000000000815260040161062b9061100a565b60405180910390fd5b6000600460008481526020019081526020016000205490508160046000858152602001908152602001600020819055508261066d610a8e565b73ffffffffffffffffffffffffffffffffffffffff167f40a2e1011bc4b63fe019abc98ce43b9ae4a22f2072b84f3d14941dc1675979c283856040516106b4929190611065565b60405180910390a3505050565b60008060009054906101000a900473ffffffffffffffffffffffffffffffffffffffff16905090565b6106f2610a8e565b73ffffffffffffffffffffffffffffffffffffffff166107106106c1565b73ffffffffffffffffffffffffffffffffffffffff1614610766576040517f08c379a000000000000000000000000000000000000000000000000000000000815260040161075d9061102a565b60405180910390fd5b61076e6106c1565b73ffffffffffffffffffffffffffffffffffffffff1661078c610a8e565b73ffffffffffffffffffffffffffffffffffffffff16146107e2576040517f08c379a00000000000000000000000000000000000000000000000000000000081526004016107d99061100a565b60405180910390fd5b6004600082815260200190815260200160002060009055600260009054906101000a900473ffffffffffffffffffffffffffffffffffffffff1673ffffffffffffffffffffffffffffffffffffffff166323b872dd306108406106c1565b846040518463ffffffff1660e01b815260040161085f93929190610f98565b600060405180830381600087803b15801561087957600080fd5b505af115801561088d573d6000803e3d6000fd5b505050508061089a6106c1565b73ffffffffffffffffffffffffffffffffffffffff167f75935f771a42c6f29d92d3e4b9e660d3be7c210e3eb51e444a5b75d1b8c02b2760405160405180910390a350565b60046020528060005260406000206000915090505481565b60006109016106c1565b9050600061090d610a8e565b905061091883610b5a565b828173ffffffffffffffffffffffffffffffffffffffff168373ffffffffffffffffffffffffffffffffffffffff167f46661dab58311a6838247afecbee792192b4f27fc8b3e7168c66bc55ec2e404e6004600088815260200190815260200160002054604051610989919061104a565b60405180910390a4505050565b61099e610a8e565b73ffffffffffffffffffffffffffffffffffffffff166109bc6106c1565b73ffffffffffffffffffffffffffffffffffffffff1614610a12576040517f08c379a0000000000000000000000000000000000000000000000000000000008152600401610a099061102a565b60405180910390fd5b600073ffffffffffffffffffffffffffffffffffffffff168173ffffffffffffffffffffffffffffffffffffffff161415610a82576040517f08c379a0000000000000000000000000000000000000000000000000000000008152600401610a7990610fea565b60405180910390fd5b610a8b81610a96565b50565b600033905090565b60008060009054906101000a900473ffffffffffffffffffffffffffffffffffffffff169050816000806101000a81548173ffffffffffffffffffffffffffffffffffffffff021916908373ffffffffffffffffffffffffffffffffffffffff1602179055508173ffffffffffffffffffffffffffffffffffffffff168173ffffffffffffffffffffffffffffffffffffffff167f8be0079c531659141344cd1fd0a4f28419497f9722a3daafe3b4186f6b6457e060405160405180910390a35050565b600360009054906101000a900473ffffffffffffffffffffffffffffffffffffffff1673ffffffffffffffffffffffffffffffffffffffff166323b872dd610ba0610a8e565b610ba86106c1565b60046000868152602001908152602001600020546040518463ffffffff1660e01b8152600401610bda93929190610f98565b602060405180830381600087803b158015610bf457600080fd5b505af1158015610c08573d6000803e3d6000fd5b505050506040513d601f19601f82011682018060405250810190610c2c9190610ddc565b5060003414610c8457610c3d610a8e565b73ffffffffffffffffffffffffffffffffffffffff166108fc349081150290604051600060405180830381858888f19350505050158015610c82573d6000803e3d6000fd5b505b600260009054906101000a900473ffffffffffffffffffffffffffffffffffffffff1673ffffffffffffffffffffffffffffffffffffffff166323b872dd30610ccb610a8e565b846040518463ffffffff1660e01b8152600401610cea93929190610f98565b600060405180830381600087803b158015610d0457600080fd5b505af1158015610d18573d6000803e3d6000fd5b50505050600460008281526020019081526020016000206000905550565b600081359050610d458161110b565b92915050565b600081519050610d5a8161110b565b92915050565b600081519050610d6f81611122565b92915050565b600081359050610d8481611139565b92915050565b600060208284031215610d9c57600080fd5b6000610daa84828501610d36565b91505092915050565b600060208284031215610dc557600080fd5b6000610dd384828501610d4b565b91505092915050565b600060208284031215610dee57600080fd5b6000610dfc84828501610d60565b91505092915050565b600060208284031215610e1757600080fd5b6000610e2584828501610d75565b91505092915050565b60008060408385031215610e4157600080fd5b6000610e4f85828601610d75565b9250506020610e6085828601610d75565b9150509250929050565b610e738161109f565b82525050565b610e82816110e7565b82525050565b6000610e9560268361108e565b91507f4f776e61626c653a206e6577206f776e657220697320746865207a65726f206160008301527f64647265737300000000000000000000000000000000000000000000000000006020830152604082019050919050565b6000610efb60158361108e565b91507f596f7520617265206e6f7420746865206f776e657200000000000000000000006000830152602082019050919050565b6000610f3b60208361108e565b91507f4f776e61626c653a2063616c6c6572206973206e6f7420746865206f776e65726000830152602082019050919050565b610f77816110dd565b82525050565b6000602082019050610f926000830184610e6a565b92915050565b6000606082019050610fad6000830186610e6a565b610fba6020830185610e6a565b610fc76040830184610f6e565b949350505050565b6000602082019050610fe46000830184610e79565b92915050565b6000602082019050818103600083015261100381610e88565b9050919050565b6000602082019050818103600083015261102381610eee565b9050919050565b6000602082019050818103600083015261104381610f2e565b9050919050565b600060208201905061105f6000830184610f6e565b92915050565b600060408201905061107a6000830185610f6e565b6110876020830184610f6e565b9392505050565b600082825260208201905092915050565b60006110aa826110bd565b9050919050565b60008115159050919050565b600073ffffffffffffffffffffffffffffffffffffffff82169050919050565b6000819050919050565b60006110f2826110f9565b9050919050565b6000611104826110bd565b9050919050565b6111148161109f565b811461111f57600080fd5b50565b61112b816110b1565b811461113657600080fd5b50565b611142816110dd565b811461114d57600080fd5b5056fea2646970667358221220b3a956f710e35f15cfe13c888f0dd0dc6dd0f28119668572118c859a55754f8964736f6c63430008000033",
  "immutableReferences": {},
  "source": "// SPDX-License-Identifier: MIT\npragma solidity ^0.8.0;\n\nimport \"@openzeppelin/contracts/access/Ownable.sol\";\nimport \"@openzeppelin/contracts/security/ReentrancyGuard.sol\";\nimport \"@openzeppelin/contracts/token/ERC20/IERC20.sol\";\nimport \"@openzeppelin/contracts/token/ERC721/IERC721.sol\";\nimport \"@openzeppelin/contracts/utils/Context.sol\";\n\nimport \"./RadaNFTToken.sol\";\n\ncontract Store is Ownable, ReentrancyGuard {\n    RadaNFTToken public radaNFTToken;\n    address public marketplaceToken;\n\n    mapping(uint256 => uint256) public itemPrices;\n\n    event Listing(address indexed owner, uint256 indexed nftId, uint256 price);\n\n    event Unlisting(address indexed owner, uint256 indexed nftId);\n\n    event Purchase(\n        address indexed previousOwner,\n        address indexed newOwner,\n        uint256 indexed nftId,\n        uint256 listingPrice\n    );\n\n    event PriceUpdated(\n        address indexed owner,\n        uint256 indexed nftId,\n        uint256 oldPrice,\n        uint256 newPrice\n    );\n\n    constructor(RadaNFTToken _radaNFTToken, address _marketplaceToken) {\n        radaNFTToken = _radaNFTToken;\n        marketplaceToken = _marketplaceToken;\n    }\n\n    function listing(uint256 _nftId, uint256 _price) public onlyOwner {\n        require(\n            radaNFTToken.ownerOf(_nftId) == _msgSender(),\n            \"You are not the owner\"\n        );\n        radaNFTToken.transferFrom(owner(), address(this), _nftId);\n\n        itemPrices[_nftId] = _price;\n\n        emit Listing(owner(), _nftId, _price);\n    }\n\n    function unlisting(uint256 _nftId) public onlyOwner {\n        require(_msgSender() == owner(), \"You are not the owner\");\n\n        delete itemPrices[_nftId];\n\n        radaNFTToken.transferFrom(address(this), owner(), _nftId);\n\n        emit Unlisting(owner(), _nftId);\n    }\n\n    function buy(uint256 _nftId) external {\n        address previousOwner = owner();\n        address newOwner = _msgSender();\n\n        _trade(_nftId);\n\n        emit Purchase(previousOwner, newOwner, _nftId, itemPrices[_nftId]);\n    }\n\n    function _trade(uint256 _nftId) private {\n        IERC20(marketplaceToken).transferFrom(\n            _msgSender(),\n            owner(),\n            itemPrices[_nftId]\n        );\n\n        if (msg.value != 0) {\n            payable(_msgSender()).transfer(msg.value);\n        }\n\n        radaNFTToken.transferFrom(address(this), _msgSender(), _nftId);\n\n        delete itemPrices[_nftId];\n    }\n\n    function updatePrice(uint256 _nftId, uint256 _price) public onlyOwner {\n        require(_msgSender() == owner(), \"You are not the owner\");\n\n        uint256 oldPrice = itemPrices[_nftId];\n        itemPrices[_nftId] = _price;\n\n        emit PriceUpdated(_msgSender(), _nftId, oldPrice, _price);\n    }\n}\n",
  "sourcePath": "/Users/khanhtiet/Projects/learning-practices/blockchain/NFT_Campaign/store/contracts/Store.sol",
  "compiler": {
    "name": "solc",
    "version": "0.8.0+commit.c7dfd78e.Emscripten.clang"
  },
  "schemaVersion": "3.4.3",
  "updatedAt": "2021-09-28T18:59:05.098Z",
  "networkType": "ethereum",
  "devdoc": {
    "kind": "dev",
    "methods": {
      "owner()": {
        "details": "Returns the address of the current owner."
      },
      "renounceOwnership()": {
        "details": "Leaves the contract without owner. It will not be possible to call `onlyOwner` functions anymore. Can only be called by the current owner. NOTE: Renouncing ownership will leave the contract without an owner, thereby removing any functionality that is only available to the owner."
      },
      "transferOwnership(address)": {
        "details": "Transfers ownership of the contract to a new account (`newOwner`). Can only be called by the current owner."
      }
    },
    "version": 1
  },
  "userdoc": {
    "kind": "user",
    "methods": {},
    "version": 1
  }
}