{
  "contractName": "Store",
  "abi": [
    {
      "anonymous": false,
      "inputs": [
        {
          "indexed": true,
          "internalType": "address",
          "name": "previousOwner",
          "type": "address"
        },
        {
          "indexed": true,
          "internalType": "address",
          "name": "newOwner",
          "type": "address"
        }
      ],
      "name": "OwnershipTransferred",
      "type": "event"
    },
    {
      "anonymous": false,
      "inputs": [
        {
          "indexed": false,
          "internalType": "uint256",
          "name": "_campaignId",
          "type": "uint256"
        },
        {
          "indexed": false,
          "internalType": "address",
          "name": "_creator",
          "type": "address"
        },
        {
          "indexed": false,
          "internalType": "address",
          "name": "_wallet",
          "type": "address"
        },
        {
          "indexed": false,
          "internalType": "string",
          "name": "_name",
          "type": "string"
        }
      ],
      "name": "campaignCreated",
      "type": "event"
    },
    {
      "inputs": [],
      "name": "_campaign_count",
      "outputs": [
        {
          "internalType": "uint256",
          "name": "",
          "type": "uint256"
        }
      ],
      "stateMutability": "view",
      "type": "function"
    },
    {
      "inputs": [
        {
          "internalType": "uint256",
          "name": "",
          "type": "uint256"
        }
      ],
      "name": "campaigns",
      "outputs": [
        {
          "internalType": "address",
          "name": "creator",
          "type": "address"
        },
        {
          "internalType": "address",
          "name": "wallet",
          "type": "address"
        },
        {
          "internalType": "string",
          "name": "name",
          "type": "string"
        }
      ],
      "stateMutability": "view",
      "type": "function"
    },
    {
      "inputs": [],
      "name": "owner",
      "outputs": [
        {
          "internalType": "address",
          "name": "",
          "type": "address"
        }
      ],
      "stateMutability": "view",
      "type": "function"
    },
    {
      "inputs": [],
      "name": "renounceOwnership",
      "outputs": [],
      "stateMutability": "nonpayable",
      "type": "function"
    },
    {
      "inputs": [
        {
          "internalType": "address",
          "name": "newOwner",
          "type": "address"
        }
      ],
      "name": "transferOwnership",
      "outputs": [],
      "stateMutability": "nonpayable",
      "type": "function"
    },
    {
      "inputs": [
        {
          "internalType": "address",
          "name": "_user",
          "type": "address"
        }
      ],
      "name": "addWhitelister",
      "outputs": [],
      "stateMutability": "nonpayable",
      "type": "function"
    },
    {
      "inputs": [
        {
          "internalType": "address",
          "name": "_user",
          "type": "address"
        }
      ],
      "name": "removeWhitelister",
      "outputs": [],
      "stateMutability": "nonpayable",
      "type": "function"
    },
    {
      "inputs": [
        {
          "internalType": "address",
          "name": "_user",
          "type": "address"
        }
      ],
      "name": "isWhitelister",
      "outputs": [
        {
          "internalType": "bool",
          "name": "",
          "type": "bool"
        }
      ],
      "stateMutability": "view",
      "type": "function"
    },
    {
      "inputs": [
        {
          "internalType": "string",
          "name": "_name",
          "type": "string"
        },
        {
          "internalType": "uint256",
          "name": "_price",
          "type": "uint256"
        },
        {
          "internalType": "string",
          "name": "_baseURI",
          "type": "string"
        },
        {
          "internalType": "uint256",
          "name": "_tokenIds",
          "type": "uint256"
        }
      ],
      "name": "createCampaign",
      "outputs": [],
      "stateMutability": "nonpayable",
      "type": "function"
    }
  ],
  "bytecode": "0x608060405234801561001057600080fd5b5061002d61002261003960201b60201c565b61004160201b60201c565b60018081905550610105565b600033905090565b60008060009054906101000a900473ffffffffffffffffffffffffffffffffffffffff169050816000806101000a81548173ffffffffffffffffffffffffffffffffffffffff021916908373ffffffffffffffffffffffffffffffffffffffff1602179055508173ffffffffffffffffffffffffffffffffffffffff168173ffffffffffffffffffffffffffffffffffffffff167f8be0079c531659141344cd1fd0a4f28419497f9722a3daafe3b4186f6b6457e060405160405180910390a35050565b614fbf806101146000396000f3fe60806040523480156200001157600080fd5b5060043610620000a05760003560e01c806382c3f79c116200006f57806382c3f79c14620001415780638da5cb5b1462000161578063af8c052f1462000183578063eaf9144a14620001a3578063f2fde38b14620001c357620000a0565b8063141961bc14620000a55780634c5b888014620000dd578063715018a614620000ff5780637d0c269f146200010b575b600080fd5b620000c36004803603810190620000bd919062000bf2565b620001e3565b604051620000d49392919062000dc1565b60405180910390f35b620000e7620002dd565b604051620000f6919062000ef3565b60405180910390f35b62000109620002e3565b005b62000129600480360381019062000123919062000b28565b62000374565b60405162000138919062000e70565b60405180910390f35b6200015f600480360381019062000159919062000b28565b620003ca565b005b6200016b620004a8565b6040516200017a919062000da4565b60405180910390f35b620001a160048036038101906200019b919062000b54565b620004d1565b005b620001c16004803603810190620001bb919062000b28565b6200071c565b005b620001e16004803603810190620001db919062000b28565b620007fa565b005b60046020528060005260406000206000915090508060000160009054906101000a900473ffffffffffffffffffffffffffffffffffffffff16908060010160009054906101000a900473ffffffffffffffffffffffffffffffffffffffff16908060020180546200025490620010d3565b80601f01602080910402602001604051908101604052809291908181526020018280546200028290620010d3565b8015620002d35780601f10620002a757610100808354040283529160200191620002d3565b820191906000526020600020905b815481529060010190602001808311620002b557829003601f168201915b5050505050905083565b60025481565b620002ed620008fe565b73ffffffffffffffffffffffffffffffffffffffff166200030d620004a8565b73ffffffffffffffffffffffffffffffffffffffff161462000366576040517f08c379a00000000000000000000000000000000000000000000000000000000081526004016200035d9062000eaf565b60405180910390fd5b62000372600062000906565b565b6000600360008373ffffffffffffffffffffffffffffffffffffffff1673ffffffffffffffffffffffffffffffffffffffff16815260200190815260200160002060009054906101000a900460ff169050919050565b620003d4620008fe565b73ffffffffffffffffffffffffffffffffffffffff16620003f4620004a8565b73ffffffffffffffffffffffffffffffffffffffff16146200044d576040517f08c379a0000000000000000000000000000000000000000000000000000000008152600401620004449062000eaf565b60405180910390fd5b6000600360008373ffffffffffffffffffffffffffffffffffffffff1673ffffffffffffffffffffffffffffffffffffffff16815260200190815260200160002060006101000a81548160ff02191690831515021790555050565b60008060009054906101000a900473ffffffffffffffffffffffffffffffffffffffff16905090565b60011515600360003373ffffffffffffffffffffffffffffffffffffffff1673ffffffffffffffffffffffffffffffffffffffff16815260200190815260200160002060009054906101000a900460ff1615151462000567576040517f08c379a00000000000000000000000000000000000000000000000000000000081526004016200055e9062000ed1565b60405180910390fd5b600033858585856040516200057c90620009ca565b6200058c95949392919062000e05565b604051809103906000f080158015620005a9573d6000803e3d6000fd5b509050600160026000828254620005c1919062000fe7565b9250508190555060405180606001604052803373ffffffffffffffffffffffffffffffffffffffff1681526020018273ffffffffffffffffffffffffffffffffffffffff1681526020018681525060046000600254815260200190815260200160002060008201518160000160006101000a81548173ffffffffffffffffffffffffffffffffffffffff021916908373ffffffffffffffffffffffffffffffffffffffff16021790555060208201518160010160006101000a81548173ffffffffffffffffffffffffffffffffffffffff021916908373ffffffffffffffffffffffffffffffffffffffff1602179055506040820151816002019080519060200190620006d0929190620009d8565b509050507fb2dda779357cd4c192ee69e881a6fcb5a659a58466a3eb4d240002ee56898c136002543383886040516200070d949392919062000f10565b60405180910390a15050505050565b62000726620008fe565b73ffffffffffffffffffffffffffffffffffffffff1662000746620004a8565b73ffffffffffffffffffffffffffffffffffffffff16146200079f576040517f08c379a0000000000000000000000000000000000000000000000000000000008152600401620007969062000eaf565b60405180910390fd5b6001600360008373ffffffffffffffffffffffffffffffffffffffff1673ffffffffffffffffffffffffffffffffffffffff16815260200190815260200160002060006101000a81548160ff02191690831515021790555050565b62000804620008fe565b73ffffffffffffffffffffffffffffffffffffffff1662000824620004a8565b73ffffffffffffffffffffffffffffffffffffffff16146200087d576040517f08c379a0000000000000000000000000000000000000000000000000000000008152600401620008749062000eaf565b60405180910390fd5b600073ffffffffffffffffffffffffffffffffffffffff168173ffffffffffffffffffffffffffffffffffffffff161415620008f0576040517f08c379a0000000000000000000000000000000000000000000000000000000008152600401620008e79062000e8d565b60405180910390fd5b620008fb8162000906565b50565b600033905090565b60008060009054906101000a900473ffffffffffffffffffffffffffffffffffffffff169050816000806101000a81548173ffffffffffffffffffffffffffffffffffffffff021916908373ffffffffffffffffffffffffffffffffffffffff1602179055508173ffffffffffffffffffffffffffffffffffffffff168173ffffffffffffffffffffffffffffffffffffffff167f8be0079c531659141344cd1fd0a4f28419497f9722a3daafe3b4186f6b6457e060405160405180910390a35050565b613dae80620011dc83390190565b828054620009e690620010d3565b90600052602060002090601f01602090048101928262000a0a576000855562000a56565b82601f1062000a2557805160ff191683800117855562000a56565b8280016001018555821562000a56579182015b8281111562000a5557825182559160200191906001019062000a38565b5b50905062000a65919062000a69565b5090565b5b8082111562000a8457600081600090555060010162000a6a565b5090565b600062000a9f62000a998462000f98565b62000f64565b90508281526020810184848401111562000ab857600080fd5b62000ac58482856200108e565b509392505050565b60008135905062000ade81620011a7565b92915050565b600082601f83011262000af657600080fd5b813562000b0884826020860162000a88565b91505092915050565b60008135905062000b2281620011c1565b92915050565b60006020828403121562000b3b57600080fd5b600062000b4b8482850162000acd565b91505092915050565b6000806000806080858703121562000b6b57600080fd5b600085013567ffffffffffffffff81111562000b8657600080fd5b62000b948782880162000ae4565b945050602062000ba78782880162000b11565b935050604085013567ffffffffffffffff81111562000bc557600080fd5b62000bd38782880162000ae4565b925050606062000be68782880162000b11565b91505092959194509250565b60006020828403121562000c0557600080fd5b600062000c158482850162000b11565b91505092915050565b62000c298162001044565b82525050565b62000c3a8162001058565b82525050565b600062000c4d8262000fcb565b62000c59818562000fd6565b935062000c6b8185602086016200109d565b62000c768162001196565b840191505092915050565b600062000c9060268362000fd6565b91507f4f776e61626c653a206e6577206f776e657220697320746865207a65726f206160008301527f64647265737300000000000000000000000000000000000000000000000000006020830152604082019050919050565b600062000cf860208362000fd6565b91507f4f776e61626c653a2063616c6c6572206973206e6f7420746865206f776e65726000830152602082019050919050565b600062000d3a60278362000fd6565b91507f4f776e61626c653a2063616c6c6572206973206e6f7420696e2074686520776860008301527f6974656c697374000000000000000000000000000000000000000000000000006020830152604082019050919050565b62000d9e8162001084565b82525050565b600060208201905062000dbb600083018462000c1e565b92915050565b600060608201905062000dd8600083018662000c1e565b62000de7602083018562000c1e565b818103604083015262000dfb818462000c40565b9050949350505050565b600060a08201905062000e1c600083018862000c1e565b818103602083015262000e30818762000c40565b905062000e41604083018662000d93565b818103606083015262000e55818562000c40565b905062000e66608083018462000d93565b9695505050505050565b600060208201905062000e87600083018462000c2f565b92915050565b6000602082019050818103600083015262000ea88162000c81565b9050919050565b6000602082019050818103600083015262000eca8162000ce9565b9050919050565b6000602082019050818103600083015262000eec8162000d2b565b9050919050565b600060208201905062000f0a600083018462000d93565b92915050565b600060808201905062000f27600083018762000d93565b62000f36602083018662000c1e565b62000f45604083018562000c1e565b818103606083015262000f59818462000c40565b905095945050505050565b6000604051905081810181811067ffffffffffffffff8211171562000f8e5762000f8d62001167565b5b8060405250919050565b600067ffffffffffffffff82111562000fb65762000fb562001167565b5b601f19601f8301169050602081019050919050565b600081519050919050565b600082825260208201905092915050565b600062000ff48262001084565b9150620010018362001084565b9250827fffffffffffffffffffffffffffffffffffffffffffffffffffffffffffffffff0382111562001039576200103862001109565b5b828201905092915050565b6000620010518262001064565b9050919050565b60008115159050919050565b600073ffffffffffffffffffffffffffffffffffffffff82169050919050565b6000819050919050565b82818337600083830152505050565b60005b83811015620010bd578082015181840152602081019050620010a0565b83811115620010cd576000848401525b50505050565b60006002820490506001821680620010ec57607f821691505b6020821081141562001103576200110262001138565b5b50919050565b7f4e487b7100000000000000000000000000000000000000000000000000000000600052601160045260246000fd5b7f4e487b7100000000000000000000000000000000000000000000000000000000600052602260045260246000fd5b7f4e487b7100000000000000000000000000000000000000000000000000000000600052604160045260246000fd5b6000601f19601f8301169050919050565b620011b28162001044565b8114620011be57600080fd5b50565b620011cc8162001084565b8114620011d857600080fd5b5056fe608060405260405162003dae38038062003dae83398181016040528101906200002991906200041e565b816200004a6200003e620000a760201b60201c565b620000af60201b60201c565b6200005b816200017360201b60201c565b50600060068190555082600781905550836005908051906020019062000083929190620002ce565b50806008819055506200009c856200018f60201b60201c565b505050505062000774565b600033905090565b60008060009054906101000a900473ffffffffffffffffffffffffffffffffffffffff169050816000806101000a81548173ffffffffffffffffffffffffffffffffffffffff021916908373ffffffffffffffffffffffffffffffffffffffff1602179055508173ffffffffffffffffffffffffffffffffffffffff168173ffffffffffffffffffffffffffffffffffffffff167f8be0079c531659141344cd1fd0a4f28419497f9722a3daafe3b4186f6b6457e060405160405180910390a35050565b80600390805190602001906200018b929190620002ce565b5050565b6200019f620000a760201b60201c565b73ffffffffffffffffffffffffffffffffffffffff16620001c5620002a560201b60201c565b73ffffffffffffffffffffffffffffffffffffffff16146200021e576040517f08c379a000000000000000000000000000000000000000000000000000000000815260040162000215906200059e565b60405180910390fd5b600073ffffffffffffffffffffffffffffffffffffffff168173ffffffffffffffffffffffffffffffffffffffff16141562000291576040517f08c379a000000000000000000000000000000000000000000000000000000000815260040162000288906200057c565b60405180910390fd5b620002a281620000af60201b60201c565b50565b60008060009054906101000a900473ffffffffffffffffffffffffffffffffffffffff16905090565b828054620002dc90620006ac565b90600052602060002090601f0160209004810192826200030057600085556200034c565b82601f106200031b57805160ff19168380011785556200034c565b828001600101855582156200034c579182015b828111156200034b5782518255916020019190600101906200032e565b5b5090506200035b91906200035f565b5090565b5b808211156200037a57600081600090555060010162000360565b5090565b6000620003956200038f84620005f4565b620005c0565b905082815260208101848484011115620003ae57600080fd5b620003bb84828562000676565b509392505050565b600081519050620003d48162000740565b92915050565b600082601f830112620003ec57600080fd5b8151620003fe8482602086016200037e565b91505092915050565b60008151905062000418816200075a565b92915050565b600080600080600060a086880312156200043757600080fd5b60006200044788828901620003c3565b955050602086015167ffffffffffffffff8111156200046557600080fd5b6200047388828901620003da565b9450506040620004868882890162000407565b935050606086015167ffffffffffffffff811115620004a457600080fd5b620004b288828901620003da565b9250506080620004c58882890162000407565b9150509295509295909350565b6000620004e160268362000627565b91507f4f776e61626c653a206e6577206f776e657220697320746865207a65726f206160008301527f64647265737300000000000000000000000000000000000000000000000000006020830152604082019050919050565b60006200054960208362000627565b91507f4f776e61626c653a2063616c6c6572206973206e6f7420746865206f776e65726000830152602082019050919050565b600060208201905081810360008301526200059781620004d2565b9050919050565b60006020820190508181036000830152620005b9816200053a565b9050919050565b6000604051905081810181811067ffffffffffffffff82111715620005ea57620005e962000711565b5b8060405250919050565b600067ffffffffffffffff82111562000612576200061162000711565b5b601f19601f8301169050602081019050919050565b600082825260208201905092915050565b600062000645826200064c565b9050919050565b600073ffffffffffffffffffffffffffffffffffffffff82169050919050565b6000819050919050565b60005b838110156200069657808201518184015260208101905062000679565b83811115620006a6576000848401525b50505050565b60006002820490506001821680620006c557607f821691505b60208210811415620006dc57620006db620006e2565b5b50919050565b7f4e487b7100000000000000000000000000000000000000000000000000000000600052602260045260246000fd5b7f4e487b7100000000000000000000000000000000000000000000000000000000600052604160045260246000fd5b6200074b8162000638565b81146200075757600080fd5b50565b62000765816200066c565b81146200077157600080fd5b50565b61362a80620007846000396000f3fe60806040526004361061011e5760003560e01c80638da5cb5b116100a0578063a22cb46511610064578063a22cb465146103db578063bd85b03914610404578063e985e9c514610441578063f242432a1461047e578063f2fde38b146104a75761011e565b80638da5cb5b1461030657806391b7f5ed146103315780639fa6a6e31461035a5780639ff534dc14610385578063a035b1fe146103b05761011e565b80632eb2c2d6116100e75780632eb2c2d6146102215780634e1273f41461024a5780634f558e7914610287578063714cff56146102c4578063715018a6146102ef5761011e565b8062fdd58e1461012357806301ffc9a71461016057806306fdde031461019d5780630e89341c146101c85780631b2ef1ca14610205575b600080fd5b34801561012f57600080fd5b5061014a600480360381019061014591906124cd565b6104d0565b604051610157919061308b565b60405180910390f35b34801561016c57600080fd5b5061018760048036038101906101829190612575565b61059a565b6040516101949190612e4e565b60405180910390f35b3480156101a957600080fd5b506101b261067c565b6040516101bf9190612e69565b60405180910390f35b3480156101d457600080fd5b506101ef60048036038101906101ea91906125c7565b61070a565b6040516101fc9190612e69565b60405180910390f35b61021f600480360381019061021a91906125f0565b61079e565b005b34801561022d57600080fd5b5061024860048036038101906102439190612343565b610a17565b005b34801561025657600080fd5b50610271600480360381019061026c9190612509565b610ab8565b60405161027e9190612df5565b60405180910390f35b34801561029357600080fd5b506102ae60048036038101906102a991906125c7565b610c69565b6040516102bb9190612e4e565b60405180910390f35b3480156102d057600080fd5b506102d9610c7d565b6040516102e6919061308b565b60405180910390f35b3480156102fb57600080fd5b50610304610c83565b005b34801561031257600080fd5b5061031b610d0b565b6040516103289190612d18565b60405180910390f35b34801561033d57600080fd5b50610358600480360381019061035391906125c7565b610d34565b005b34801561036657600080fd5b5061036f610dba565b60405161037c919061308b565b60405180910390f35b34801561039157600080fd5b5061039a610dc0565b6040516103a7919061308b565b60405180910390f35b3480156103bc57600080fd5b506103c5610dc6565b6040516103d2919061308b565b60405180910390f35b3480156103e757600080fd5b5061040260048036038101906103fd9190612491565b610dcc565b005b34801561041057600080fd5b5061042b600480360381019061042691906125c7565b610de2565b604051610438919061308b565b60405180910390f35b34801561044d57600080fd5b5061046860048036038101906104639190612307565b610dff565b6040516104759190612e4e565b60405180910390f35b34801561048a57600080fd5b506104a560048036038101906104a09190612402565b610e93565b005b3480156104b357600080fd5b506104ce60048036038101906104c991906122de565b610f34565b005b60008073ffffffffffffffffffffffffffffffffffffffff168373ffffffffffffffffffffffffffffffffffffffff161415610541576040517f08c379a000000000000000000000000000000000000000000000000000000000815260040161053890612ecb565b60405180910390fd5b6001600083815260200190815260200160002060008473ffffffffffffffffffffffffffffffffffffffff1673ffffffffffffffffffffffffffffffffffffffff16815260200190815260200160002054905092915050565b60007fd9b67a26000000000000000000000000000000000000000000000000000000007bffffffffffffffffffffffffffffffffffffffffffffffffffffffff1916827bffffffffffffffffffffffffffffffffffffffffffffffffffffffff1916148061066557507f0e89341c000000000000000000000000000000000000000000000000000000007bffffffffffffffffffffffffffffffffffffffffffffffffffffffff1916827bffffffffffffffffffffffffffffffffffffffffffffffffffffffff1916145b8061067557506106748261102c565b5b9050919050565b60058054610689906133bc565b80601f01602080910402602001604051908101604052809291908181526020018280546106b5906133bc565b80156107025780601f106106d757610100808354040283529160200191610702565b820191906000526020600020905b8154815290600101906020018083116106e557829003601f168201915b505050505081565b606060038054610719906133bc565b80601f0160208091040260200160405190810160405280929190818152602001828054610745906133bc565b80156107925780601f1061076757610100808354040283529160200191610792565b820191906000526020600020905b81548152906001019060200180831161077557829003601f168201915b50505050509050919050565b600754816107ac9190613278565b34116107ed576040517f08c379a00000000000000000000000000000000000000000000000000000000081526004016107e490612f4b565b60405180910390fd5b6008548210610831576040517f08c379a000000000000000000000000000000000000000000000000000000000815260040161082890612f2b565b60405180910390fd5b6001600c60008481526020019081526020016000205410610887576040517f08c379a000000000000000000000000000000000000000000000000000000000815260040161087e90612fab565b60405180910390fd5b6108a233838360405180602001604052806000815250611096565b6001600c600084815260200190815260200160002060008282546108c69190613222565b9250508190555060405180604001604052803373ffffffffffffffffffffffffffffffffffffffff16815260200182815250600a6000600954815260200190815260200160002060008201518160000160006101000a81548173ffffffffffffffffffffffffffffffffffffffff021916908373ffffffffffffffffffffffffffffffffffffffff16021790555060208201518160010155905050600954600b60003373ffffffffffffffffffffffffffffffffffffffff1673ffffffffffffffffffffffffffffffffffffffff168152602001908152602001600020819055506001600960008282546109ba9190613222565b9250508190555034600660008282546109d39190613222565b925050819055507f6887a0e53a7f04b5ed4b8f7dc007a901af127436d4dfff9b84b347e35e5845538233604051610a0b9291906130a6565b60405180910390a15050565b610a1f61122d565b73ffffffffffffffffffffffffffffffffffffffff168573ffffffffffffffffffffffffffffffffffffffff161480610a655750610a6485610a5f61122d565b610dff565b5b610aa4576040517f08c379a0000000000000000000000000000000000000000000000000000000008152600401610a9b90612f8b565b60405180910390fd5b610ab18585858585611235565b5050505050565b60608151835114610afe576040517f08c379a0000000000000000000000000000000000000000000000000000000008152600401610af59061302b565b60405180910390fd5b6000835167ffffffffffffffff811115610b41577f4e487b7100000000000000000000000000000000000000000000000000000000600052604160045260246000fd5b604051908082528060200260200182016040528015610b6f5781602001602082028036833780820191505090505b50905060005b8451811015610c5e57610c08858281518110610bba577f4e487b7100000000000000000000000000000000000000000000000000000000600052603260045260246000fd5b6020026020010151858381518110610bfb577f4e487b7100000000000000000000000000000000000000000000000000000000600052603260045260246000fd5b60200260200101516104d0565b828281518110610c41577f4e487b7100000000000000000000000000000000000000000000000000000000600052603260045260246000fd5b60200260200101818152505080610c57906133ee565b9050610b75565b508091505092915050565b600080610c7583610de2565b119050919050565b60085481565b610c8b61122d565b73ffffffffffffffffffffffffffffffffffffffff16610ca9610d0b565b73ffffffffffffffffffffffffffffffffffffffff1614610cff576040517f08c379a0000000000000000000000000000000000000000000000000000000008152600401610cf690612feb565b60405180910390fd5b610d096000611598565b565b60008060009054906101000a900473ffffffffffffffffffffffffffffffffffffffff16905090565b610d3c61122d565b73ffffffffffffffffffffffffffffffffffffffff16610d5a610d0b565b73ffffffffffffffffffffffffffffffffffffffff1614610db0576040517f08c379a0000000000000000000000000000000000000000000000000000000008152600401610da790612feb565b60405180910390fd5b8060078190555050565b60065481565b60095481565b60075481565b610dde610dd761122d565b838361165c565b5050565b600060046000838152602001908152602001600020549050919050565b6000600260008473ffffffffffffffffffffffffffffffffffffffff1673ffffffffffffffffffffffffffffffffffffffff16815260200190815260200160002060008373ffffffffffffffffffffffffffffffffffffffff1673ffffffffffffffffffffffffffffffffffffffff16815260200190815260200160002060009054906101000a900460ff16905092915050565b610e9b61122d565b73ffffffffffffffffffffffffffffffffffffffff168573ffffffffffffffffffffffffffffffffffffffff161480610ee15750610ee085610edb61122d565b610dff565b5b610f20576040517f08c379a0000000000000000000000000000000000000000000000000000000008152600401610f1790612f0b565b60405180910390fd5b610f2d85858585856117c9565b5050505050565b610f3c61122d565b73ffffffffffffffffffffffffffffffffffffffff16610f5a610d0b565b73ffffffffffffffffffffffffffffffffffffffff1614610fb0576040517f08c379a0000000000000000000000000000000000000000000000000000000008152600401610fa790612feb565b60405180910390fd5b600073ffffffffffffffffffffffffffffffffffffffff168173ffffffffffffffffffffffffffffffffffffffff161415611020576040517f08c379a000000000000000000000000000000000000000000000000000000000815260040161101790612eeb565b60405180910390fd5b61102981611598565b50565b60007f01ffc9a7000000000000000000000000000000000000000000000000000000007bffffffffffffffffffffffffffffffffffffffffffffffffffffffff1916827bffffffffffffffffffffffffffffffffffffffffffffffffffffffff1916149050919050565b600073ffffffffffffffffffffffffffffffffffffffff168473ffffffffffffffffffffffffffffffffffffffff161415611106576040517f08c379a00000000000000000000000000000000000000000000000000000000081526004016110fd9061306b565b60405180910390fd5b600061111061122d565b90506111318160008761112288611a4e565b61112b88611a4e565b87611b14565b826001600086815260200190815260200160002060008773ffffffffffffffffffffffffffffffffffffffff1673ffffffffffffffffffffffffffffffffffffffff16815260200190815260200160002060008282546111919190613222565b925050819055508473ffffffffffffffffffffffffffffffffffffffff16600073ffffffffffffffffffffffffffffffffffffffff168273ffffffffffffffffffffffffffffffffffffffff167fc3d58168c5ae7397731d063d5bbf3d657854427343f4c083240f7aacaa2d0f62878760405161120f9291906130cf565b60405180910390a461122681600087878787611d26565b5050505050565b600033905090565b8151835114611279576040517f08c379a00000000000000000000000000000000000000000000000000000000081526004016112709061304b565b60405180910390fd5b600073ffffffffffffffffffffffffffffffffffffffff168473ffffffffffffffffffffffffffffffffffffffff1614156112e9576040517f08c379a00000000000000000000000000000000000000000000000000000000081526004016112e090612f6b565b60405180910390fd5b60006112f361122d565b9050611303818787878787611b14565b60005b845181101561150357600085828151811061134a577f4e487b7100000000000000000000000000000000000000000000000000000000600052603260045260246000fd5b60200260200101519050600085838151811061138f577f4e487b7100000000000000000000000000000000000000000000000000000000600052603260045260246000fd5b6020026020010151905060006001600084815260200190815260200160002060008b73ffffffffffffffffffffffffffffffffffffffff1673ffffffffffffffffffffffffffffffffffffffff16815260200190815260200160002054905081811015611431576040517f08c379a000000000000000000000000000000000000000000000000000000000815260040161142890612fcb565b60405180910390fd5b8181036001600085815260200190815260200160002060008c73ffffffffffffffffffffffffffffffffffffffff1673ffffffffffffffffffffffffffffffffffffffff16815260200190815260200160002081905550816001600085815260200190815260200160002060008b73ffffffffffffffffffffffffffffffffffffffff1673ffffffffffffffffffffffffffffffffffffffff16815260200190815260200160002060008282546114e89190613222565b92505081905550505050806114fc906133ee565b9050611306565b508473ffffffffffffffffffffffffffffffffffffffff168673ffffffffffffffffffffffffffffffffffffffff168273ffffffffffffffffffffffffffffffffffffffff167f4a39dc06d4c0dbc64b70af90fd698a233a518aa5d07e595d983b8c0526c8f7fb878760405161157a929190612e17565b60405180910390a4611590818787878787611ef6565b505050505050565b60008060009054906101000a900473ffffffffffffffffffffffffffffffffffffffff169050816000806101000a81548173ffffffffffffffffffffffffffffffffffffffff021916908373ffffffffffffffffffffffffffffffffffffffff1602179055508173ffffffffffffffffffffffffffffffffffffffff168173ffffffffffffffffffffffffffffffffffffffff167f8be0079c531659141344cd1fd0a4f28419497f9722a3daafe3b4186f6b6457e060405160405180910390a35050565b8173ffffffffffffffffffffffffffffffffffffffff168373ffffffffffffffffffffffffffffffffffffffff1614156116cb576040517f08c379a00000000000000000000000000000000000000000000000000000000081526004016116c29061300b565b60405180910390fd5b80600260008573ffffffffffffffffffffffffffffffffffffffff1673ffffffffffffffffffffffffffffffffffffffff16815260200190815260200160002060008473ffffffffffffffffffffffffffffffffffffffff1673ffffffffffffffffffffffffffffffffffffffff16815260200190815260200160002060006101000a81548160ff0219169083151502179055508173ffffffffffffffffffffffffffffffffffffffff168373ffffffffffffffffffffffffffffffffffffffff167f17307eab39ab6107e8899845ad3d59bd9653f200f220920489ca2b5937696c31836040516117bc9190612e4e565b60405180910390a3505050565b600073ffffffffffffffffffffffffffffffffffffffff168473ffffffffffffffffffffffffffffffffffffffff161415611839576040517f08c379a000000000000000000000000000000000000000000000000000000000815260040161183090612f6b565b60405180910390fd5b600061184361122d565b905061186381878761185488611a4e565b61185d88611a4e565b87611b14565b60006001600086815260200190815260200160002060008873ffffffffffffffffffffffffffffffffffffffff1673ffffffffffffffffffffffffffffffffffffffff168152602001908152602001600020549050838110156118fb576040517f08c379a00000000000000000000000000000000000000000000000000000000081526004016118f290612fcb565b60405180910390fd5b8381036001600087815260200190815260200160002060008973ffffffffffffffffffffffffffffffffffffffff1673ffffffffffffffffffffffffffffffffffffffff16815260200190815260200160002081905550836001600087815260200190815260200160002060008873ffffffffffffffffffffffffffffffffffffffff1673ffffffffffffffffffffffffffffffffffffffff16815260200190815260200160002060008282546119b29190613222565b925050819055508573ffffffffffffffffffffffffffffffffffffffff168773ffffffffffffffffffffffffffffffffffffffff168373ffffffffffffffffffffffffffffffffffffffff167fc3d58168c5ae7397731d063d5bbf3d657854427343f4c083240f7aacaa2d0f628888604051611a2f9291906130cf565b60405180910390a4611a45828888888888611d26565b50505050505050565b60606000600167ffffffffffffffff811115611a93577f4e487b7100000000000000000000000000000000000000000000000000000000600052604160045260246000fd5b604051908082528060200260200182016040528015611ac15781602001602082028036833780820191505090505b5090508281600081518110611aff577f4e487b7100000000000000000000000000000000000000000000000000000000600052603260045260246000fd5b60200260200101818152505080915050919050565b611b228686868686866120c6565b600073ffffffffffffffffffffffffffffffffffffffff168573ffffffffffffffffffffffffffffffffffffffff161415611c205760005b8351811015611c1e57828181518110611b9c577f4e487b7100000000000000000000000000000000000000000000000000000000600052603260045260246000fd5b602002602001015160046000868481518110611be1577f4e487b7100000000000000000000000000000000000000000000000000000000600052603260045260246000fd5b602002602001015181526020019081526020016000206000828254611c069190613222565b9250508190555080611c17906133ee565b9050611b5a565b505b600073ffffffffffffffffffffffffffffffffffffffff168473ffffffffffffffffffffffffffffffffffffffff161415611d1e5760005b8351811015611d1c57828181518110611c9a577f4e487b7100000000000000000000000000000000000000000000000000000000600052603260045260246000fd5b602002602001015160046000868481518110611cdf577f4e487b7100000000000000000000000000000000000000000000000000000000600052603260045260246000fd5b602002602001015181526020019081526020016000206000828254611d0491906132d2565b9250508190555080611d15906133ee565b9050611c58565b505b505050505050565b611d458473ffffffffffffffffffffffffffffffffffffffff166120ce565b15611eee578373ffffffffffffffffffffffffffffffffffffffff1663f23a6e6187878686866040518663ffffffff1660e01b8152600401611d8b959493929190612d9b565b602060405180830381600087803b158015611da557600080fd5b505af1925050508015611dd657506040513d601f19601f82011682018060405250810190611dd3919061259e565b60015b611e6557611de26134e2565b80611ded5750611e2a565b806040517f08c379a0000000000000000000000000000000000000000000000000000000008152600401611e219190612e69565b60405180910390fd5b6040517f08c379a0000000000000000000000000000000000000000000000000000000008152600401611e5c90612e8b565b60405180910390fd5b63f23a6e6160e01b7bffffffffffffffffffffffffffffffffffffffffffffffffffffffff1916817bffffffffffffffffffffffffffffffffffffffffffffffffffffffff191614611eec576040517f08c379a0000000000000000000000000000000000000000000000000000000008152600401611ee390612eab565b60405180910390fd5b505b505050505050565b611f158473ffffffffffffffffffffffffffffffffffffffff166120ce565b156120be578373ffffffffffffffffffffffffffffffffffffffff1663bc197c8187878686866040518663ffffffff1660e01b8152600401611f5b959493929190612d33565b602060405180830381600087803b158015611f7557600080fd5b505af1925050508015611fa657506040513d601f19601f82011682018060405250810190611fa3919061259e565b60015b61203557611fb26134e2565b80611fbd5750611ffa565b806040517f08c379a0000000000000000000000000000000000000000000000000000000008152600401611ff19190612e69565b60405180910390fd5b6040517f08c379a000000000000000000000000000000000000000000000000000000000815260040161202c90612e8b565b60405180910390fd5b63bc197c8160e01b7bffffffffffffffffffffffffffffffffffffffffffffffffffffffff1916817bffffffffffffffffffffffffffffffffffffffffffffffffffffffff1916146120bc576040517f08c379a00000000000000000000000000000000000000000000000000000000081526004016120b390612eab565b60405180910390fd5b505b505050505050565b505050505050565b600080823b905060008111915050919050565b60006120f46120ef84613129565b6130f8565b9050808382526020820190508285602086028201111561211357600080fd5b60005b85811015612143578161212988826121f7565b845260208401935060208301925050600181019050612116565b5050509392505050565b600061216061215b84613155565b6130f8565b9050808382526020820190508285602086028201111561217f57600080fd5b60005b858110156121af578161219588826122c9565b845260208401935060208301925050600181019050612182565b5050509392505050565b60006121cc6121c784613181565b6130f8565b9050828152602081018484840111156121e457600080fd5b6121ef84828561337a565b509392505050565b60008135905061220681613598565b92915050565b600082601f83011261221d57600080fd5b813561222d8482602086016120e1565b91505092915050565b600082601f83011261224757600080fd5b813561225784826020860161214d565b91505092915050565b60008135905061226f816135af565b92915050565b600081359050612284816135c6565b92915050565b600081519050612299816135c6565b92915050565b600082601f8301126122b057600080fd5b81356122c08482602086016121b9565b91505092915050565b6000813590506122d8816135dd565b92915050565b6000602082840312156122f057600080fd5b60006122fe848285016121f7565b91505092915050565b6000806040838503121561231a57600080fd5b6000612328858286016121f7565b9250506020612339858286016121f7565b9150509250929050565b600080600080600060a0868803121561235b57600080fd5b6000612369888289016121f7565b955050602061237a888289016121f7565b945050604086013567ffffffffffffffff81111561239757600080fd5b6123a388828901612236565b935050606086013567ffffffffffffffff8111156123c057600080fd5b6123cc88828901612236565b925050608086013567ffffffffffffffff8111156123e957600080fd5b6123f58882890161229f565b9150509295509295909350565b600080600080600060a0868803121561241a57600080fd5b6000612428888289016121f7565b9550506020612439888289016121f7565b945050604061244a888289016122c9565b935050606061245b888289016122c9565b925050608086013567ffffffffffffffff81111561247857600080fd5b6124848882890161229f565b9150509295509295909350565b600080604083850312156124a457600080fd5b60006124b2858286016121f7565b92505060206124c385828601612260565b9150509250929050565b600080604083850312156124e057600080fd5b60006124ee858286016121f7565b92505060206124ff858286016122c9565b9150509250929050565b6000806040838503121561251c57600080fd5b600083013567ffffffffffffffff81111561253657600080fd5b6125428582860161220c565b925050602083013567ffffffffffffffff81111561255f57600080fd5b61256b85828601612236565b9150509250929050565b60006020828403121561258757600080fd5b600061259584828501612275565b91505092915050565b6000602082840312156125b057600080fd5b60006125be8482850161228a565b91505092915050565b6000602082840312156125d957600080fd5b60006125e7848285016122c9565b91505092915050565b6000806040838503121561260357600080fd5b6000612611858286016122c9565b9250506020612622858286016122c9565b9150509250929050565b60006126388383612cfa565b60208301905092915050565b61264d81613306565b82525050565b600061265e826131c1565b61266881856131ef565b9350612673836131b1565b8060005b838110156126a457815161268b888261262c565b9750612696836131e2565b925050600181019050612677565b5085935050505092915050565b6126ba81613318565b82525050565b60006126cb826131cc565b6126d58185613200565b93506126e5818560208601613389565b6126ee816134c4565b840191505092915050565b6000612704826131d7565b61270e8185613211565b935061271e818560208601613389565b612727816134c4565b840191505092915050565b600061273f603483613211565b91507f455243313135353a207472616e7366657220746f206e6f6e204552433131353560008301527f526563656976657220696d706c656d656e7465720000000000000000000000006020830152604082019050919050565b60006127a5602883613211565b91507f455243313135353a204552433131353552656365697665722072656a6563746560008301527f6420746f6b656e730000000000000000000000000000000000000000000000006020830152604082019050919050565b600061280b602b83613211565b91507f455243313135353a2062616c616e636520717565727920666f7220746865207a60008301527f65726f20616464726573730000000000000000000000000000000000000000006020830152604082019050919050565b6000612871602683613211565b91507f4f776e61626c653a206e6577206f776e657220697320746865207a65726f206160008301527f64647265737300000000000000000000000000000000000000000000000000006020830152604082019050919050565b60006128d7602983613211565b91507f455243313135353a2063616c6c6572206973206e6f74206f776e6572206e6f7260008301527f20617070726f76656400000000000000000000000000000000000000000000006020830152604082019050919050565b600061293d600f83613211565b91507f496e76616c696420746f6b656e496400000000000000000000000000000000006000830152602082019050919050565b600061297d601683613211565b91507f4e6f7420656e6f7567682065746820746f206d696e74000000000000000000006000830152602082019050919050565b60006129bd602583613211565b91507f455243313135353a207472616e7366657220746f20746865207a65726f20616460008301527f64726573730000000000000000000000000000000000000000000000000000006020830152604082019050919050565b6000612a23603283613211565b91507f455243313135353a207472616e736665722063616c6c6572206973206e6f742060008301527f6f776e6572206e6f7220617070726f76656400000000000000000000000000006020830152604082019050919050565b6000612a89601d83613211565b91507f5468697320746f6b656e4964206973206f7574206f6620737570706c790000006000830152602082019050919050565b6000612ac9602a83613211565b91507f455243313135353a20696e73756666696369656e742062616c616e636520666f60008301527f72207472616e73666572000000000000000000000000000000000000000000006020830152604082019050919050565b6000612b2f602083613211565b91507f4f776e61626c653a2063616c6c6572206973206e6f7420746865206f776e65726000830152602082019050919050565b6000612b6f602983613211565b91507f455243313135353a2073657474696e6720617070726f76616c2073746174757360008301527f20666f722073656c6600000000000000000000000000000000000000000000006020830152604082019050919050565b6000612bd5602983613211565b91507f455243313135353a206163636f756e747320616e6420696473206c656e67746860008301527f206d69736d6174636800000000000000000000000000000000000000000000006020830152604082019050919050565b6000612c3b602883613211565b91507f455243313135353a2069647320616e6420616d6f756e7473206c656e6774682060008301527f6d69736d617463680000000000000000000000000000000000000000000000006020830152604082019050919050565b6000612ca1602183613211565b91507f455243313135353a206d696e7420746f20746865207a65726f2061646472657360008301527f73000000000000000000000000000000000000000000000000000000000000006020830152604082019050919050565b612d0381613370565b82525050565b612d1281613370565b82525050565b6000602082019050612d2d6000830184612644565b92915050565b600060a082019050612d486000830188612644565b612d556020830187612644565b8181036040830152612d678186612653565b90508181036060830152612d7b8185612653565b90508181036080830152612d8f81846126c0565b90509695505050505050565b600060a082019050612db06000830188612644565b612dbd6020830187612644565b612dca6040830186612d09565b612dd76060830185612d09565b8181036080830152612de981846126c0565b90509695505050505050565b60006020820190508181036000830152612e0f8184612653565b905092915050565b60006040820190508181036000830152612e318185612653565b90508181036020830152612e458184612653565b90509392505050565b6000602082019050612e6360008301846126b1565b92915050565b60006020820190508181036000830152612e8381846126f9565b905092915050565b60006020820190508181036000830152612ea481612732565b9050919050565b60006020820190508181036000830152612ec481612798565b9050919050565b60006020820190508181036000830152612ee4816127fe565b9050919050565b60006020820190508181036000830152612f0481612864565b9050919050565b60006020820190508181036000830152612f24816128ca565b9050919050565b60006020820190508181036000830152612f4481612930565b9050919050565b60006020820190508181036000830152612f6481612970565b9050919050565b60006020820190508181036000830152612f84816129b0565b9050919050565b60006020820190508181036000830152612fa481612a16565b9050919050565b60006020820190508181036000830152612fc481612a7c565b9050919050565b60006020820190508181036000830152612fe481612abc565b9050919050565b6000602082019050818103600083015261300481612b22565b9050919050565b6000602082019050818103600083015261302481612b62565b9050919050565b6000602082019050818103600083015261304481612bc8565b9050919050565b6000602082019050818103600083015261306481612c2e565b9050919050565b6000602082019050818103600083015261308481612c94565b9050919050565b60006020820190506130a06000830184612d09565b92915050565b60006040820190506130bb6000830185612d09565b6130c86020830184612644565b9392505050565b60006040820190506130e46000830185612d09565b6130f16020830184612d09565b9392505050565b6000604051905081810181811067ffffffffffffffff8211171561311f5761311e613495565b5b8060405250919050565b600067ffffffffffffffff82111561314457613143613495565b5b602082029050602081019050919050565b600067ffffffffffffffff8211156131705761316f613495565b5b602082029050602081019050919050565b600067ffffffffffffffff82111561319c5761319b613495565b5b601f19601f8301169050602081019050919050565b6000819050602082019050919050565b600081519050919050565b600081519050919050565b600081519050919050565b6000602082019050919050565b600082825260208201905092915050565b600082825260208201905092915050565b600082825260208201905092915050565b600061322d82613370565b915061323883613370565b9250827fffffffffffffffffffffffffffffffffffffffffffffffffffffffffffffffff0382111561326d5761326c613437565b5b828201905092915050565b600061328382613370565b915061328e83613370565b9250817fffffffffffffffffffffffffffffffffffffffffffffffffffffffffffffffff04831182151516156132c7576132c6613437565b5b828202905092915050565b60006132dd82613370565b91506132e883613370565b9250828210156132fb576132fa613437565b5b828203905092915050565b600061331182613350565b9050919050565b60008115159050919050565b60007fffffffff0000000000000000000000000000000000000000000000000000000082169050919050565b600073ffffffffffffffffffffffffffffffffffffffff82169050919050565b6000819050919050565b82818337600083830152505050565b60005b838110156133a757808201518184015260208101905061338c565b838111156133b6576000848401525b50505050565b600060028204905060018216806133d457607f821691505b602082108114156133e8576133e7613466565b5b50919050565b60006133f982613370565b91507fffffffffffffffffffffffffffffffffffffffffffffffffffffffffffffffff82141561342c5761342b613437565b5b600182019050919050565b7f4e487b7100000000000000000000000000000000000000000000000000000000600052601160045260246000fd5b7f4e487b7100000000000000000000000000000000000000000000000000000000600052602260045260246000fd5b7f4e487b7100000000000000000000000000000000000000000000000000000000600052604160045260246000fd5b6000601f19601f8301169050919050565b60008160e01c9050919050565b600060443d10156134f257613595565b60046000803e6135036000516134d5565b6308c379a081146135145750613595565b60405160043d036004823e80513d602482011167ffffffffffffffff8211171561354057505050613595565b808201805167ffffffffffffffff81111561355f575050505050613595565b8060208301013d850181111561357a57505050505050613595565b613583826134c4565b60208401016040528296505050505050505b90565b6135a181613306565b81146135ac57600080fd5b50565b6135b881613318565b81146135c357600080fd5b50565b6135cf81613324565b81146135da57600080fd5b50565b6135e681613370565b81146135f157600080fd5b5056fea2646970667358221220986c70d103846a47f5a36a21b3473b8a1c00484276c718d80d4ff8fdcfb7236a64736f6c63430008000033a2646970667358221220c6776f291a0328d5e3837616e6f56588cd6c6db6bbafc2b704e6599fdb98ffc564736f6c63430008000033",
  "immutableReferences": {},
  "source": "// SPDX-License-Identifier: MIT\npragma solidity ^0.8.0;\n\nimport \"@openzeppelin/contracts/access/Ownable.sol\";\nimport \"@openzeppelin/contracts/security/ReentrancyGuard.sol\";\nimport \"./CampaignNFT.sol\";\n\n\ncontract Store is Ownable, ReentrancyGuard {\n    \n    struct Campaign{\n        address creator;\n        address wallet;\n        string name;\n    }\n    uint public _campaign_count;\n    mapping(address => bool) private whitelist; // user in whitelist can create campaign\n    mapping(uint => Campaign) public campaigns;\n    \n    event campaignCreated(uint _campaignId, address _creator, address _wallet, string _name);\n\n    modifier onlyWhitelister() {\n        require(whitelist[msg.sender] == true, \"Ownable: caller is not in the whitelist\");\n        _;\n    }    \n    modifier onlyOwnerOfCampaign(uint _campaignId) {\n        require(msg.sender == campaigns[_campaignId].creator, \"You are not owner of campaign\");\n        _;\n    }\n\n    // whitelist methods\n    function addWhitelister(address _user) external onlyOwner {\n        whitelist[_user] = true;\n    }\n    function removeWhitelister(address _user) external onlyOwner {\n        whitelist[_user] = false;\n    }\n    function isWhitelister(address _user) external view returns (bool) {\n        return whitelist[_user];\n    }\n\n    // campaign methods\n    function createCampaign(string memory _name, uint _price, string memory _baseURI, uint _tokenIds) public onlyWhitelister {\n        CampaignNFT newCampaign = new CampaignNFT(msg.sender, _name, _price, _baseURI, _tokenIds);\n        _campaign_count += 1; \n        campaigns[_campaign_count] = Campaign(msg.sender, address(newCampaign), _name);\n        emit campaignCreated(_campaign_count, msg.sender, address(newCampaign), _name);\n    }\n    \n\n}\n\n",
  "sourcePath": "/Users/mdplus/Workspace/Home/Rada/nft4charity/smartcontract/contracts/Store.sol",
  "compiler": {
    "name": "solc",
    "version": "0.8.0+commit.c7dfd78e.Emscripten.clang"
  },
  "schemaVersion": "3.4.3",
  "updatedAt": "2021-12-17T14:31:36.043Z",
  "devdoc": {
    "kind": "dev",
    "methods": {
      "owner()": {
        "details": "Returns the address of the current owner."
      },
      "renounceOwnership()": {
        "details": "Leaves the contract without owner. It will not be possible to call `onlyOwner` functions anymore. Can only be called by the current owner. NOTE: Renouncing ownership will leave the contract without an owner, thereby removing any functionality that is only available to the owner."
      },
      "transferOwnership(address)": {
        "details": "Transfers ownership of the contract to a new account (`newOwner`). Can only be called by the current owner."
      }
    },
    "version": 1
  },
  "userdoc": {
    "kind": "user",
    "methods": {},
    "version": 1
  }
}