{
  "contractName": "Store",
  "abi": [
    {
      "anonymous": false,
      "inputs": [
        {
          "indexed": true,
          "internalType": "address",
          "name": "previousOwner",
          "type": "address"
        },
        {
          "indexed": true,
          "internalType": "address",
          "name": "newOwner",
          "type": "address"
        }
      ],
      "name": "OwnershipTransferred",
      "type": "event"
    },
    {
      "anonymous": false,
      "inputs": [
        {
          "indexed": false,
          "internalType": "uint256",
          "name": "_campaignId",
          "type": "uint256"
        },
        {
          "indexed": false,
          "internalType": "address",
          "name": "_creator",
          "type": "address"
        },
        {
          "indexed": false,
          "internalType": "address",
          "name": "_wallet",
          "type": "address"
        },
        {
          "indexed": false,
          "internalType": "string",
          "name": "_name",
          "type": "string"
        }
      ],
      "name": "campaignCreated",
      "type": "event"
    },
    {
      "inputs": [],
      "name": "_campaign_count",
      "outputs": [
        {
          "internalType": "uint256",
          "name": "",
          "type": "uint256"
        }
      ],
      "stateMutability": "view",
      "type": "function",
      "constant": true
    },
    {
      "inputs": [
        {
          "internalType": "uint256",
          "name": "",
          "type": "uint256"
        }
      ],
      "name": "campaigns",
      "outputs": [
        {
          "internalType": "address",
          "name": "creator",
          "type": "address"
        },
        {
          "internalType": "address",
          "name": "wallet",
          "type": "address"
        },
        {
          "internalType": "string",
          "name": "name",
          "type": "string"
        }
      ],
      "stateMutability": "view",
      "type": "function",
      "constant": true
    },
    {
      "inputs": [],
      "name": "owner",
      "outputs": [
        {
          "internalType": "address",
          "name": "",
          "type": "address"
        }
      ],
      "stateMutability": "view",
      "type": "function",
      "constant": true
    },
    {
      "inputs": [],
      "name": "renounceOwnership",
      "outputs": [],
      "stateMutability": "nonpayable",
      "type": "function"
    },
    {
      "inputs": [
        {
          "internalType": "address",
          "name": "newOwner",
          "type": "address"
        }
      ],
      "name": "transferOwnership",
      "outputs": [],
      "stateMutability": "nonpayable",
      "type": "function"
    },
    {
      "inputs": [
        {
          "internalType": "address",
          "name": "_user",
          "type": "address"
        }
      ],
      "name": "addWhitelister",
      "outputs": [],
      "stateMutability": "nonpayable",
      "type": "function"
    },
    {
      "inputs": [
        {
          "internalType": "address",
          "name": "_user",
          "type": "address"
        }
      ],
      "name": "removeWhitelister",
      "outputs": [],
      "stateMutability": "nonpayable",
      "type": "function"
    },
    {
      "inputs": [
        {
          "internalType": "address",
          "name": "_user",
          "type": "address"
        }
      ],
      "name": "isWhitelister",
      "outputs": [
        {
          "internalType": "bool",
          "name": "",
          "type": "bool"
        }
      ],
      "stateMutability": "view",
      "type": "function",
      "constant": true
    },
    {
      "inputs": [
        {
          "internalType": "string",
          "name": "_name",
          "type": "string"
        },
        {
          "internalType": "uint256",
          "name": "_price",
          "type": "uint256"
        },
        {
          "internalType": "string",
          "name": "_baseURI",
          "type": "string"
        },
        {
          "internalType": "uint256",
          "name": "_tokenIds",
          "type": "uint256"
        }
      ],
      "name": "createCampaign",
      "outputs": [],
      "stateMutability": "nonpayable",
      "type": "function"
    }
  ],
  "bytecode": "0x608060405234801561001057600080fd5b5061002d61002261003960201b60201c565b61004160201b60201c565b60018081905550610105565b600033905090565b60008060009054906101000a900473ffffffffffffffffffffffffffffffffffffffff169050816000806101000a81548173ffffffffffffffffffffffffffffffffffffffff021916908373ffffffffffffffffffffffffffffffffffffffff1602179055508173ffffffffffffffffffffffffffffffffffffffff168173ffffffffffffffffffffffffffffffffffffffff167f8be0079c531659141344cd1fd0a4f28419497f9722a3daafe3b4186f6b6457e060405160405180910390a35050565b61543d806101146000396000f3fe60806040523480156200001157600080fd5b5060043610620000a05760003560e01c806382c3f79c116200006f57806382c3f79c14620001415780638da5cb5b1462000161578063af8c052f1462000183578063eaf9144a14620001a3578063f2fde38b14620001c357620000a0565b8063141961bc14620000a55780634c5b888014620000dd578063715018a614620000ff5780637d0c269f146200010b575b600080fd5b620000c36004803603810190620000bd919062000bf2565b620001e3565b604051620000d49392919062000dc1565b60405180910390f35b620000e7620002dd565b604051620000f6919062000ef3565b60405180910390f35b62000109620002e3565b005b62000129600480360381019062000123919062000b28565b62000374565b60405162000138919062000e70565b60405180910390f35b6200015f600480360381019062000159919062000b28565b620003ca565b005b6200016b620004a8565b6040516200017a919062000da4565b60405180910390f35b620001a160048036038101906200019b919062000b54565b620004d1565b005b620001c16004803603810190620001bb919062000b28565b6200071c565b005b620001e16004803603810190620001db919062000b28565b620007fa565b005b60046020528060005260406000206000915090508060000160009054906101000a900473ffffffffffffffffffffffffffffffffffffffff16908060010160009054906101000a900473ffffffffffffffffffffffffffffffffffffffff16908060020180546200025490620010d3565b80601f01602080910402602001604051908101604052809291908181526020018280546200028290620010d3565b8015620002d35780601f10620002a757610100808354040283529160200191620002d3565b820191906000526020600020905b815481529060010190602001808311620002b557829003601f168201915b5050505050905083565b60025481565b620002ed620008fe565b73ffffffffffffffffffffffffffffffffffffffff166200030d620004a8565b73ffffffffffffffffffffffffffffffffffffffff161462000366576040517f08c379a00000000000000000000000000000000000000000000000000000000081526004016200035d9062000eaf565b60405180910390fd5b62000372600062000906565b565b6000600360008373ffffffffffffffffffffffffffffffffffffffff1673ffffffffffffffffffffffffffffffffffffffff16815260200190815260200160002060009054906101000a900460ff169050919050565b620003d4620008fe565b73ffffffffffffffffffffffffffffffffffffffff16620003f4620004a8565b73ffffffffffffffffffffffffffffffffffffffff16146200044d576040517f08c379a0000000000000000000000000000000000000000000000000000000008152600401620004449062000eaf565b60405180910390fd5b6000600360008373ffffffffffffffffffffffffffffffffffffffff1673ffffffffffffffffffffffffffffffffffffffff16815260200190815260200160002060006101000a81548160ff02191690831515021790555050565b60008060009054906101000a900473ffffffffffffffffffffffffffffffffffffffff16905090565b60011515600360003373ffffffffffffffffffffffffffffffffffffffff1673ffffffffffffffffffffffffffffffffffffffff16815260200190815260200160002060009054906101000a900460ff1615151462000567576040517f08c379a00000000000000000000000000000000000000000000000000000000081526004016200055e9062000ed1565b60405180910390fd5b600033858585856040516200057c90620009ca565b6200058c95949392919062000e05565b604051809103906000f080158015620005a9573d6000803e3d6000fd5b509050600160026000828254620005c1919062000fe7565b9250508190555060405180606001604052803373ffffffffffffffffffffffffffffffffffffffff1681526020018273ffffffffffffffffffffffffffffffffffffffff1681526020018681525060046000600254815260200190815260200160002060008201518160000160006101000a81548173ffffffffffffffffffffffffffffffffffffffff021916908373ffffffffffffffffffffffffffffffffffffffff16021790555060208201518160010160006101000a81548173ffffffffffffffffffffffffffffffffffffffff021916908373ffffffffffffffffffffffffffffffffffffffff1602179055506040820151816002019080519060200190620006d0929190620009d8565b509050507fb2dda779357cd4c192ee69e881a6fcb5a659a58466a3eb4d240002ee56898c136002543383886040516200070d949392919062000f10565b60405180910390a15050505050565b62000726620008fe565b73ffffffffffffffffffffffffffffffffffffffff1662000746620004a8565b73ffffffffffffffffffffffffffffffffffffffff16146200079f576040517f08c379a0000000000000000000000000000000000000000000000000000000008152600401620007969062000eaf565b60405180910390fd5b6001600360008373ffffffffffffffffffffffffffffffffffffffff1673ffffffffffffffffffffffffffffffffffffffff16815260200190815260200160002060006101000a81548160ff02191690831515021790555050565b62000804620008fe565b73ffffffffffffffffffffffffffffffffffffffff1662000824620004a8565b73ffffffffffffffffffffffffffffffffffffffff16146200087d576040517f08c379a0000000000000000000000000000000000000000000000000000000008152600401620008749062000eaf565b60405180910390fd5b600073ffffffffffffffffffffffffffffffffffffffff168173ffffffffffffffffffffffffffffffffffffffff161415620008f0576040517f08c379a0000000000000000000000000000000000000000000000000000000008152600401620008e79062000e8d565b60405180910390fd5b620008fb8162000906565b50565b600033905090565b60008060009054906101000a900473ffffffffffffffffffffffffffffffffffffffff169050816000806101000a81548173ffffffffffffffffffffffffffffffffffffffff021916908373ffffffffffffffffffffffffffffffffffffffff1602179055508173ffffffffffffffffffffffffffffffffffffffff168173ffffffffffffffffffffffffffffffffffffffff167f8be0079c531659141344cd1fd0a4f28419497f9722a3daafe3b4186f6b6457e060405160405180910390a35050565b61422c80620011dc83390190565b828054620009e690620010d3565b90600052602060002090601f01602090048101928262000a0a576000855562000a56565b82601f1062000a2557805160ff191683800117855562000a56565b8280016001018555821562000a56579182015b8281111562000a5557825182559160200191906001019062000a38565b5b50905062000a65919062000a69565b5090565b5b8082111562000a8457600081600090555060010162000a6a565b5090565b600062000a9f62000a998462000f98565b62000f64565b90508281526020810184848401111562000ab857600080fd5b62000ac58482856200108e565b509392505050565b60008135905062000ade81620011a7565b92915050565b600082601f83011262000af657600080fd5b813562000b0884826020860162000a88565b91505092915050565b60008135905062000b2281620011c1565b92915050565b60006020828403121562000b3b57600080fd5b600062000b4b8482850162000acd565b91505092915050565b6000806000806080858703121562000b6b57600080fd5b600085013567ffffffffffffffff81111562000b8657600080fd5b62000b948782880162000ae4565b945050602062000ba78782880162000b11565b935050604085013567ffffffffffffffff81111562000bc557600080fd5b62000bd38782880162000ae4565b925050606062000be68782880162000b11565b91505092959194509250565b60006020828403121562000c0557600080fd5b600062000c158482850162000b11565b91505092915050565b62000c298162001044565b82525050565b62000c3a8162001058565b82525050565b600062000c4d8262000fcb565b62000c59818562000fd6565b935062000c6b8185602086016200109d565b62000c768162001196565b840191505092915050565b600062000c9060268362000fd6565b91507f4f776e61626c653a206e6577206f776e657220697320746865207a65726f206160008301527f64647265737300000000000000000000000000000000000000000000000000006020830152604082019050919050565b600062000cf860208362000fd6565b91507f4f776e61626c653a2063616c6c6572206973206e6f7420746865206f776e65726000830152602082019050919050565b600062000d3a60278362000fd6565b91507f4f776e61626c653a2063616c6c6572206973206e6f7420696e2074686520776860008301527f6974656c697374000000000000000000000000000000000000000000000000006020830152604082019050919050565b62000d9e8162001084565b82525050565b600060208201905062000dbb600083018462000c1e565b92915050565b600060608201905062000dd8600083018662000c1e565b62000de7602083018562000c1e565b818103604083015262000dfb818462000c40565b9050949350505050565b600060a08201905062000e1c600083018862000c1e565b818103602083015262000e30818762000c40565b905062000e41604083018662000d93565b818103606083015262000e55818562000c40565b905062000e66608083018462000d93565b9695505050505050565b600060208201905062000e87600083018462000c2f565b92915050565b6000602082019050818103600083015262000ea88162000c81565b9050919050565b6000602082019050818103600083015262000eca8162000ce9565b9050919050565b6000602082019050818103600083015262000eec8162000d2b565b9050919050565b600060208201905062000f0a600083018462000d93565b92915050565b600060808201905062000f27600083018762000d93565b62000f36602083018662000c1e565b62000f45604083018562000c1e565b818103606083015262000f59818462000c40565b905095945050505050565b6000604051905081810181811067ffffffffffffffff8211171562000f8e5762000f8d62001167565b5b8060405250919050565b600067ffffffffffffffff82111562000fb65762000fb562001167565b5b601f19601f8301169050602081019050919050565b600081519050919050565b600082825260208201905092915050565b600062000ff48262001084565b9150620010018362001084565b9250827fffffffffffffffffffffffffffffffffffffffffffffffffffffffffffffffff0382111562001039576200103862001109565b5b828201905092915050565b6000620010518262001064565b9050919050565b60008115159050919050565b600073ffffffffffffffffffffffffffffffffffffffff82169050919050565b6000819050919050565b82818337600083830152505050565b60005b83811015620010bd578082015181840152602081019050620010a0565b83811115620010cd576000848401525b50505050565b60006002820490506001821680620010ec57607f821691505b6020821081141562001103576200110262001138565b5b50919050565b7f4e487b7100000000000000000000000000000000000000000000000000000000600052601160045260246000fd5b7f4e487b7100000000000000000000000000000000000000000000000000000000600052602260045260246000fd5b7f4e487b7100000000000000000000000000000000000000000000000000000000600052604160045260246000fd5b6000601f19601f8301169050919050565b620011b28162001044565b8114620011be57600080fd5b50565b620011cc8162001084565b8114620011d857600080fd5b5056fe60806040526040516200422c3803806200422c833981810160405281019062000029919062000437565b816200004a6200003e620000c060201b60201c565b620000c860201b60201c565b6200005b816200018c60201b60201c565b50600060068190555082600781905550836005908051906020019062000083929190620002e7565b508060088190555081600d9080519060200190620000a3929190620002e7565b50620000b585620001a860201b60201c565b50505050506200078d565b600033905090565b60008060009054906101000a900473ffffffffffffffffffffffffffffffffffffffff169050816000806101000a81548173ffffffffffffffffffffffffffffffffffffffff021916908373ffffffffffffffffffffffffffffffffffffffff1602179055508173ffffffffffffffffffffffffffffffffffffffff168173ffffffffffffffffffffffffffffffffffffffff167f8be0079c531659141344cd1fd0a4f28419497f9722a3daafe3b4186f6b6457e060405160405180910390a35050565b8060039080519060200190620001a4929190620002e7565b5050565b620001b8620000c060201b60201c565b73ffffffffffffffffffffffffffffffffffffffff16620001de620002be60201b60201c565b73ffffffffffffffffffffffffffffffffffffffff161462000237576040517f08c379a00000000000000000000000000000000000000000000000000000000081526004016200022e90620005b7565b60405180910390fd5b600073ffffffffffffffffffffffffffffffffffffffff168173ffffffffffffffffffffffffffffffffffffffff161415620002aa576040517f08c379a0000000000000000000000000000000000000000000000000000000008152600401620002a19062000595565b60405180910390fd5b620002bb81620000c860201b60201c565b50565b60008060009054906101000a900473ffffffffffffffffffffffffffffffffffffffff16905090565b828054620002f590620006c5565b90600052602060002090601f01602090048101928262000319576000855562000365565b82601f106200033457805160ff191683800117855562000365565b8280016001018555821562000365579182015b828111156200036457825182559160200191906001019062000347565b5b50905062000374919062000378565b5090565b5b808211156200039357600081600090555060010162000379565b5090565b6000620003ae620003a8846200060d565b620005d9565b905082815260208101848484011115620003c757600080fd5b620003d48482856200068f565b509392505050565b600081519050620003ed8162000759565b92915050565b600082601f8301126200040557600080fd5b81516200041784826020860162000397565b91505092915050565b600081519050620004318162000773565b92915050565b600080600080600060a086880312156200045057600080fd5b60006200046088828901620003dc565b955050602086015167ffffffffffffffff8111156200047e57600080fd5b6200048c88828901620003f3565b94505060406200049f8882890162000420565b935050606086015167ffffffffffffffff811115620004bd57600080fd5b620004cb88828901620003f3565b9250506080620004de8882890162000420565b9150509295509295909350565b6000620004fa60268362000640565b91507f4f776e61626c653a206e6577206f776e657220697320746865207a65726f206160008301527f64647265737300000000000000000000000000000000000000000000000000006020830152604082019050919050565b60006200056260208362000640565b91507f4f776e61626c653a2063616c6c6572206973206e6f7420746865206f776e65726000830152602082019050919050565b60006020820190508181036000830152620005b081620004eb565b9050919050565b60006020820190508181036000830152620005d28162000553565b9050919050565b6000604051905081810181811067ffffffffffffffff821117156200060357620006026200072a565b5b8060405250919050565b600067ffffffffffffffff8211156200062b576200062a6200072a565b5b601f19601f8301169050602081019050919050565b600082825260208201905092915050565b60006200065e8262000665565b9050919050565b600073ffffffffffffffffffffffffffffffffffffffff82169050919050565b6000819050919050565b60005b83811015620006af57808201518184015260208101905062000692565b83811115620006bf576000848401525b50505050565b60006002820490506001821680620006de57607f821691505b60208210811415620006f557620006f4620006fb565b5b50919050565b7f4e487b7100000000000000000000000000000000000000000000000000000000600052602260045260246000fd5b7f4e487b7100000000000000000000000000000000000000000000000000000000600052604160045260246000fd5b620007648162000651565b81146200077057600080fd5b50565b6200077e8162000685565b81146200078a57600080fd5b50565b613a8f806200079d6000396000f3fe60806040526004361061011e5760003560e01c80638da5cb5b116100a0578063a22cb46511610064578063a22cb465146103db578063bd85b03914610404578063e985e9c514610441578063f242432a1461047e578063f2fde38b146104a75761011e565b80638da5cb5b1461030657806391b7f5ed146103315780639fa6a6e31461035a5780639ff534dc14610385578063a035b1fe146103b05761011e565b80632eb2c2d6116100e75780632eb2c2d6146102215780634e1273f41461024a5780634f558e7914610287578063714cff56146102c4578063715018a6146102ef5761011e565b8062fdd58e1461012357806301ffc9a71461016057806306fdde031461019d5780630e89341c146101c85780631b2ef1ca14610205575b600080fd5b34801561012f57600080fd5b5061014a60048036038101906101459190612769565b6104d0565b60405161015791906134a6565b60405180910390f35b34801561016c57600080fd5b5061018760048036038101906101829190612811565b61059a565b6040516101949190613249565b60405180910390f35b3480156101a957600080fd5b506101b261067c565b6040516101bf9190613264565b60405180910390f35b3480156101d457600080fd5b506101ef60048036038101906101ea9190612863565b61070a565b6040516101fc9190613264565b60405180910390f35b61021f600480360381019061021a919061288c565b610740565b005b34801561022d57600080fd5b50610248600480360381019061024391906125df565b6109b9565b005b34801561025657600080fd5b50610271600480360381019061026c91906127a5565b610a5a565b60405161027e91906131f0565b60405180910390f35b34801561029357600080fd5b506102ae60048036038101906102a99190612863565b610c0b565b6040516102bb9190613249565b60405180910390f35b3480156102d057600080fd5b506102d9610c1f565b6040516102e691906134a6565b60405180910390f35b3480156102fb57600080fd5b50610304610c25565b005b34801561031257600080fd5b5061031b610cad565b6040516103289190613113565b60405180910390f35b34801561033d57600080fd5b5061035860048036038101906103539190612863565b610cd6565b005b34801561036657600080fd5b5061036f610d5c565b60405161037c91906134a6565b60405180910390f35b34801561039157600080fd5b5061039a610d62565b6040516103a791906134a6565b60405180910390f35b3480156103bc57600080fd5b506103c5610d68565b6040516103d291906134a6565b60405180910390f35b3480156103e757600080fd5b5061040260048036038101906103fd919061272d565b610d6e565b005b34801561041057600080fd5b5061042b60048036038101906104269190612863565b610d84565b60405161043891906134a6565b60405180910390f35b34801561044d57600080fd5b50610468600480360381019061046391906125a3565b610da1565b6040516104759190613249565b60405180910390f35b34801561048a57600080fd5b506104a560048036038101906104a0919061269e565b610e35565b005b3480156104b357600080fd5b506104ce60048036038101906104c9919061257a565b610ed6565b005b60008073ffffffffffffffffffffffffffffffffffffffff168373ffffffffffffffffffffffffffffffffffffffff161415610541576040517f08c379a0000000000000000000000000000000000000000000000000000000008152600401610538906132e6565b60405180910390fd5b6001600083815260200190815260200160002060008473ffffffffffffffffffffffffffffffffffffffff1673ffffffffffffffffffffffffffffffffffffffff16815260200190815260200160002054905092915050565b60007fd9b67a26000000000000000000000000000000000000000000000000000000007bffffffffffffffffffffffffffffffffffffffffffffffffffffffff1916827bffffffffffffffffffffffffffffffffffffffffffffffffffffffff1916148061066557507f0e89341c000000000000000000000000000000000000000000000000000000007bffffffffffffffffffffffffffffffffffffffffffffffffffffffff1916827bffffffffffffffffffffffffffffffffffffffffffffffffffffffff1916145b80610675575061067482610fce565b5b9050919050565b6005805461068990613821565b80601f01602080910402602001604051908101604052809291908181526020018280546106b590613821565b80156107025780601f106106d757610100808354040283529160200191610702565b820191906000526020600020905b8154815290600101906020018083116106e557829003601f168201915b505050505081565b6060600d610719836040611038565b60405160200161072a9291906130e4565b6040516020818303038152906040529050919050565b6007548161074e91906136b3565b341161078f576040517f08c379a000000000000000000000000000000000000000000000000000000000815260040161078690613366565b60405180910390fd5b60085482106107d3576040517f08c379a00000000000000000000000000000000000000000000000000000000081526004016107ca90613346565b60405180910390fd5b6001600c60008481526020019081526020016000205410610829576040517f08c379a0000000000000000000000000000000000000000000000000000000008152600401610820906133c6565b60405180910390fd5b61084433838360405180602001604052806000815250611332565b6001600c60008481526020019081526020016000206000828254610868919061365d565b9250508190555060405180604001604052803373ffffffffffffffffffffffffffffffffffffffff16815260200182815250600a6000600954815260200190815260200160002060008201518160000160006101000a81548173ffffffffffffffffffffffffffffffffffffffff021916908373ffffffffffffffffffffffffffffffffffffffff16021790555060208201518160010155905050600954600b60003373ffffffffffffffffffffffffffffffffffffffff1673ffffffffffffffffffffffffffffffffffffffff1681526020019081526020016000208190555060016009600082825461095c919061365d565b925050819055503460066000828254610975919061365d565b925050819055507f6887a0e53a7f04b5ed4b8f7dc007a901af127436d4dfff9b84b347e35e58455382336040516109ad9291906134c1565b60405180910390a15050565b6109c16114c9565b73ffffffffffffffffffffffffffffffffffffffff168573ffffffffffffffffffffffffffffffffffffffff161480610a075750610a0685610a016114c9565b610da1565b5b610a46576040517f08c379a0000000000000000000000000000000000000000000000000000000008152600401610a3d906133a6565b60405180910390fd5b610a5385858585856114d1565b5050505050565b60608151835114610aa0576040517f08c379a0000000000000000000000000000000000000000000000000000000008152600401610a9790613446565b60405180910390fd5b6000835167ffffffffffffffff811115610ae3577f4e487b7100000000000000000000000000000000000000000000000000000000600052604160045260246000fd5b604051908082528060200260200182016040528015610b115781602001602082028036833780820191505090505b50905060005b8451811015610c0057610baa858281518110610b5c577f4e487b7100000000000000000000000000000000000000000000000000000000600052603260045260246000fd5b6020026020010151858381518110610b9d577f4e487b7100000000000000000000000000000000000000000000000000000000600052603260045260246000fd5b60200260200101516104d0565b828281518110610be3577f4e487b7100000000000000000000000000000000000000000000000000000000600052603260045260246000fd5b60200260200101818152505080610bf990613853565b9050610b17565b508091505092915050565b600080610c1783610d84565b119050919050565b60085481565b610c2d6114c9565b73ffffffffffffffffffffffffffffffffffffffff16610c4b610cad565b73ffffffffffffffffffffffffffffffffffffffff1614610ca1576040517f08c379a0000000000000000000000000000000000000000000000000000000008152600401610c9890613406565b60405180910390fd5b610cab6000611834565b565b60008060009054906101000a900473ffffffffffffffffffffffffffffffffffffffff16905090565b610cde6114c9565b73ffffffffffffffffffffffffffffffffffffffff16610cfc610cad565b73ffffffffffffffffffffffffffffffffffffffff1614610d52576040517f08c379a0000000000000000000000000000000000000000000000000000000008152600401610d4990613406565b60405180910390fd5b8060078190555050565b60065481565b60095481565b60075481565b610d80610d796114c9565b83836118f8565b5050565b600060046000838152602001908152602001600020549050919050565b6000600260008473ffffffffffffffffffffffffffffffffffffffff1673ffffffffffffffffffffffffffffffffffffffff16815260200190815260200160002060008373ffffffffffffffffffffffffffffffffffffffff1673ffffffffffffffffffffffffffffffffffffffff16815260200190815260200160002060009054906101000a900460ff16905092915050565b610e3d6114c9565b73ffffffffffffffffffffffffffffffffffffffff168573ffffffffffffffffffffffffffffffffffffffff161480610e835750610e8285610e7d6114c9565b610da1565b5b610ec2576040517f08c379a0000000000000000000000000000000000000000000000000000000008152600401610eb990613326565b60405180910390fd5b610ecf8585858585611a65565b5050505050565b610ede6114c9565b73ffffffffffffffffffffffffffffffffffffffff16610efc610cad565b73ffffffffffffffffffffffffffffffffffffffff1614610f52576040517f08c379a0000000000000000000000000000000000000000000000000000000008152600401610f4990613406565b60405180910390fd5b600073ffffffffffffffffffffffffffffffffffffffff168173ffffffffffffffffffffffffffffffffffffffff161415610fc2576040517f08c379a0000000000000000000000000000000000000000000000000000000008152600401610fb990613306565b60405180910390fd5b610fcb81611834565b50565b60007f01ffc9a7000000000000000000000000000000000000000000000000000000007bffffffffffffffffffffffffffffffffffffffffffffffffffffffff1916827bffffffffffffffffffffffffffffffffffffffffffffffffffffffff1916149050919050565b60606000600283600261104b91906136b3565b611055919061365d565b67ffffffffffffffff811115611094577f4e487b7100000000000000000000000000000000000000000000000000000000600052604160045260246000fd5b6040519080825280601f01601f1916602001820160405280156110c65781602001600182028036833780820191505090505b5090507f300000000000000000000000000000000000000000000000000000000000000081600081518110611124577f4e487b7100000000000000000000000000000000000000000000000000000000600052603260045260246000fd5b60200101907effffffffffffffffffffffffffffffffffffffffffffffffffffffffffffff1916908160001a9053507f7800000000000000000000000000000000000000000000000000000000000000816001815181106111ae577f4e487b7100000000000000000000000000000000000000000000000000000000600052603260045260246000fd5b60200101907effffffffffffffffffffffffffffffffffffffffffffffffffffffffffffff1916908160001a905350600060018460026111ee91906136b3565b6111f8919061365d565b90505b60018111156112e4577f3031323334353637383961626364656600000000000000000000000000000000600f861660108110611260577f4e487b7100000000000000000000000000000000000000000000000000000000600052603260045260246000fd5b1a60f81b82828151811061129d577f4e487b7100000000000000000000000000000000000000000000000000000000600052603260045260246000fd5b60200101907effffffffffffffffffffffffffffffffffffffffffffffffffffffffffffff1916908160001a905350600485901c9450806112dd906137f7565b90506111fb565b5060008414611328576040517f08c379a000000000000000000000000000000000000000000000000000000000815260040161131f906132a6565b60405180910390fd5b8091505092915050565b600073ffffffffffffffffffffffffffffffffffffffff168473ffffffffffffffffffffffffffffffffffffffff1614156113a2576040517f08c379a000000000000000000000000000000000000000000000000000000000815260040161139990613486565b60405180910390fd5b60006113ac6114c9565b90506113cd816000876113be88611cea565b6113c788611cea565b87611db0565b826001600086815260200190815260200160002060008773ffffffffffffffffffffffffffffffffffffffff1673ffffffffffffffffffffffffffffffffffffffff168152602001908152602001600020600082825461142d919061365d565b925050819055508473ffffffffffffffffffffffffffffffffffffffff16600073ffffffffffffffffffffffffffffffffffffffff168273ffffffffffffffffffffffffffffffffffffffff167fc3d58168c5ae7397731d063d5bbf3d657854427343f4c083240f7aacaa2d0f6287876040516114ab9291906134ea565b60405180910390a46114c281600087878787611fc2565b5050505050565b600033905090565b8151835114611515576040517f08c379a000000000000000000000000000000000000000000000000000000000815260040161150c90613466565b60405180910390fd5b600073ffffffffffffffffffffffffffffffffffffffff168473ffffffffffffffffffffffffffffffffffffffff161415611585576040517f08c379a000000000000000000000000000000000000000000000000000000000815260040161157c90613386565b60405180910390fd5b600061158f6114c9565b905061159f818787878787611db0565b60005b845181101561179f5760008582815181106115e6577f4e487b7100000000000000000000000000000000000000000000000000000000600052603260045260246000fd5b60200260200101519050600085838151811061162b577f4e487b7100000000000000000000000000000000000000000000000000000000600052603260045260246000fd5b6020026020010151905060006001600084815260200190815260200160002060008b73ffffffffffffffffffffffffffffffffffffffff1673ffffffffffffffffffffffffffffffffffffffff168152602001908152602001600020549050818110156116cd576040517f08c379a00000000000000000000000000000000000000000000000000000000081526004016116c4906133e6565b60405180910390fd5b8181036001600085815260200190815260200160002060008c73ffffffffffffffffffffffffffffffffffffffff1673ffffffffffffffffffffffffffffffffffffffff16815260200190815260200160002081905550816001600085815260200190815260200160002060008b73ffffffffffffffffffffffffffffffffffffffff1673ffffffffffffffffffffffffffffffffffffffff1681526020019081526020016000206000828254611784919061365d565b925050819055505050508061179890613853565b90506115a2565b508473ffffffffffffffffffffffffffffffffffffffff168673ffffffffffffffffffffffffffffffffffffffff168273ffffffffffffffffffffffffffffffffffffffff167f4a39dc06d4c0dbc64b70af90fd698a233a518aa5d07e595d983b8c0526c8f7fb8787604051611816929190613212565b60405180910390a461182c818787878787612192565b505050505050565b60008060009054906101000a900473ffffffffffffffffffffffffffffffffffffffff169050816000806101000a81548173ffffffffffffffffffffffffffffffffffffffff021916908373ffffffffffffffffffffffffffffffffffffffff1602179055508173ffffffffffffffffffffffffffffffffffffffff168173ffffffffffffffffffffffffffffffffffffffff167f8be0079c531659141344cd1fd0a4f28419497f9722a3daafe3b4186f6b6457e060405160405180910390a35050565b8173ffffffffffffffffffffffffffffffffffffffff168373ffffffffffffffffffffffffffffffffffffffff161415611967576040517f08c379a000000000000000000000000000000000000000000000000000000000815260040161195e90613426565b60405180910390fd5b80600260008573ffffffffffffffffffffffffffffffffffffffff1673ffffffffffffffffffffffffffffffffffffffff16815260200190815260200160002060008473ffffffffffffffffffffffffffffffffffffffff1673ffffffffffffffffffffffffffffffffffffffff16815260200190815260200160002060006101000a81548160ff0219169083151502179055508173ffffffffffffffffffffffffffffffffffffffff168373ffffffffffffffffffffffffffffffffffffffff167f17307eab39ab6107e8899845ad3d59bd9653f200f220920489ca2b5937696c3183604051611a589190613249565b60405180910390a3505050565b600073ffffffffffffffffffffffffffffffffffffffff168473ffffffffffffffffffffffffffffffffffffffff161415611ad5576040517f08c379a0000000000000000000000000000000000000000000000000000000008152600401611acc90613386565b60405180910390fd5b6000611adf6114c9565b9050611aff818787611af088611cea565b611af988611cea565b87611db0565b60006001600086815260200190815260200160002060008873ffffffffffffffffffffffffffffffffffffffff1673ffffffffffffffffffffffffffffffffffffffff16815260200190815260200160002054905083811015611b97576040517f08c379a0000000000000000000000000000000000000000000000000000000008152600401611b8e906133e6565b60405180910390fd5b8381036001600087815260200190815260200160002060008973ffffffffffffffffffffffffffffffffffffffff1673ffffffffffffffffffffffffffffffffffffffff16815260200190815260200160002081905550836001600087815260200190815260200160002060008873ffffffffffffffffffffffffffffffffffffffff1673ffffffffffffffffffffffffffffffffffffffff1681526020019081526020016000206000828254611c4e919061365d565b925050819055508573ffffffffffffffffffffffffffffffffffffffff168773ffffffffffffffffffffffffffffffffffffffff168373ffffffffffffffffffffffffffffffffffffffff167fc3d58168c5ae7397731d063d5bbf3d657854427343f4c083240f7aacaa2d0f628888604051611ccb9291906134ea565b60405180910390a4611ce1828888888888611fc2565b50505050505050565b60606000600167ffffffffffffffff811115611d2f577f4e487b7100000000000000000000000000000000000000000000000000000000600052604160045260246000fd5b604051908082528060200260200182016040528015611d5d5781602001602082028036833780820191505090505b5090508281600081518110611d9b577f4e487b7100000000000000000000000000000000000000000000000000000000600052603260045260246000fd5b60200260200101818152505080915050919050565b611dbe868686868686612362565b600073ffffffffffffffffffffffffffffffffffffffff168573ffffffffffffffffffffffffffffffffffffffff161415611ebc5760005b8351811015611eba57828181518110611e38577f4e487b7100000000000000000000000000000000000000000000000000000000600052603260045260246000fd5b602002602001015160046000868481518110611e7d577f4e487b7100000000000000000000000000000000000000000000000000000000600052603260045260246000fd5b602002602001015181526020019081526020016000206000828254611ea2919061365d565b9250508190555080611eb390613853565b9050611df6565b505b600073ffffffffffffffffffffffffffffffffffffffff168473ffffffffffffffffffffffffffffffffffffffff161415611fba5760005b8351811015611fb857828181518110611f36577f4e487b7100000000000000000000000000000000000000000000000000000000600052603260045260246000fd5b602002602001015160046000868481518110611f7b577f4e487b7100000000000000000000000000000000000000000000000000000000600052603260045260246000fd5b602002602001015181526020019081526020016000206000828254611fa0919061370d565b9250508190555080611fb190613853565b9050611ef4565b505b505050505050565b611fe18473ffffffffffffffffffffffffffffffffffffffff1661236a565b1561218a578373ffffffffffffffffffffffffffffffffffffffff1663f23a6e6187878686866040518663ffffffff1660e01b8152600401612027959493929190613196565b602060405180830381600087803b15801561204157600080fd5b505af192505050801561207257506040513d601f19601f8201168201806040525081019061206f919061283a565b60015b6121015761207e613947565b8061208957506120c6565b806040517f08c379a00000000000000000000000000000000000000000000000000000000081526004016120bd9190613264565b60405180910390fd5b6040517f08c379a00000000000000000000000000000000000000000000000000000000081526004016120f890613286565b60405180910390fd5b63f23a6e6160e01b7bffffffffffffffffffffffffffffffffffffffffffffffffffffffff1916817bffffffffffffffffffffffffffffffffffffffffffffffffffffffff191614612188576040517f08c379a000000000000000000000000000000000000000000000000000000000815260040161217f906132c6565b60405180910390fd5b505b505050505050565b6121b18473ffffffffffffffffffffffffffffffffffffffff1661236a565b1561235a578373ffffffffffffffffffffffffffffffffffffffff1663bc197c8187878686866040518663ffffffff1660e01b81526004016121f795949392919061312e565b602060405180830381600087803b15801561221157600080fd5b505af192505050801561224257506040513d601f19601f8201168201806040525081019061223f919061283a565b60015b6122d15761224e613947565b806122595750612296565b806040517f08c379a000000000000000000000000000000000000000000000000000000000815260040161228d9190613264565b60405180910390fd5b6040517f08c379a00000000000000000000000000000000000000000000000000000000081526004016122c890613286565b60405180910390fd5b63bc197c8160e01b7bffffffffffffffffffffffffffffffffffffffffffffffffffffffff1916817bffffffffffffffffffffffffffffffffffffffffffffffffffffffff191614612358576040517f08c379a000000000000000000000000000000000000000000000000000000000815260040161234f906132c6565b60405180910390fd5b505b505050505050565b505050505050565b600080823b905060008111915050919050565b600061239061238b84613544565b613513565b905080838252602082019050828560208602820111156123af57600080fd5b60005b858110156123df57816123c58882612493565b8452602084019350602083019250506001810190506123b2565b5050509392505050565b60006123fc6123f784613570565b613513565b9050808382526020820190508285602086028201111561241b57600080fd5b60005b8581101561244b57816124318882612565565b84526020840193506020830192505060018101905061241e565b5050509392505050565b60006124686124638461359c565b613513565b90508281526020810184848401111561248057600080fd5b61248b8482856137b5565b509392505050565b6000813590506124a2816139fd565b92915050565b600082601f8301126124b957600080fd5b81356124c984826020860161237d565b91505092915050565b600082601f8301126124e357600080fd5b81356124f38482602086016123e9565b91505092915050565b60008135905061250b81613a14565b92915050565b60008135905061252081613a2b565b92915050565b60008151905061253581613a2b565b92915050565b600082601f83011261254c57600080fd5b813561255c848260208601612455565b91505092915050565b60008135905061257481613a42565b92915050565b60006020828403121561258c57600080fd5b600061259a84828501612493565b91505092915050565b600080604083850312156125b657600080fd5b60006125c485828601612493565b92505060206125d585828601612493565b9150509250929050565b600080600080600060a086880312156125f757600080fd5b600061260588828901612493565b955050602061261688828901612493565b945050604086013567ffffffffffffffff81111561263357600080fd5b61263f888289016124d2565b935050606086013567ffffffffffffffff81111561265c57600080fd5b612668888289016124d2565b925050608086013567ffffffffffffffff81111561268557600080fd5b6126918882890161253b565b9150509295509295909350565b600080600080600060a086880312156126b657600080fd5b60006126c488828901612493565b95505060206126d588828901612493565b94505060406126e688828901612565565b93505060606126f788828901612565565b925050608086013567ffffffffffffffff81111561271457600080fd5b6127208882890161253b565b9150509295509295909350565b6000806040838503121561274057600080fd5b600061274e85828601612493565b925050602061275f858286016124fc565b9150509250929050565b6000806040838503121561277c57600080fd5b600061278a85828601612493565b925050602061279b85828601612565565b9150509250929050565b600080604083850312156127b857600080fd5b600083013567ffffffffffffffff8111156127d257600080fd5b6127de858286016124a8565b925050602083013567ffffffffffffffff8111156127fb57600080fd5b612807858286016124d2565b9150509250929050565b60006020828403121561282357600080fd5b600061283184828501612511565b91505092915050565b60006020828403121561284c57600080fd5b600061285a84828501612526565b91505092915050565b60006020828403121561287557600080fd5b600061288384828501612565565b91505092915050565b6000806040838503121561289f57600080fd5b60006128ad85828601612565565b92505060206128be85828601612565565b9150509250929050565b60006128d483836130c6565b60208301905092915050565b6128e981613741565b82525050565b60006128fa826135f1565b612904818561361f565b935061290f836135cc565b8060005b8381101561294057815161292788826128c8565b975061293283613612565b925050600181019050612913565b5085935050505092915050565b61295681613753565b82525050565b6000612967826135fc565b6129718185613630565b93506129818185602086016137c4565b61298a81613929565b840191505092915050565b60006129a082613607565b6129aa8185613641565b93506129ba8185602086016137c4565b6129c381613929565b840191505092915050565b60006129d982613607565b6129e38185613652565b93506129f38185602086016137c4565b80840191505092915050565b60008154612a0c81613821565b612a168186613652565b94506001821660008114612a315760018114612a4257612a75565b60ff19831686528186019350612a75565b612a4b856135dc565b60005b83811015612a6d57815481890152600182019150602081019050612a4e565b838801955050505b50505092915050565b6000612a8b603483613641565b91507f455243313135353a207472616e7366657220746f206e6f6e204552433131353560008301527f526563656976657220696d706c656d656e7465720000000000000000000000006020830152604082019050919050565b6000612af1602083613641565b91507f537472696e67733a20686578206c656e67746820696e73756666696369656e746000830152602082019050919050565b6000612b31602883613641565b91507f455243313135353a204552433131353552656365697665722072656a6563746560008301527f6420746f6b656e730000000000000000000000000000000000000000000000006020830152604082019050919050565b6000612b97602b83613641565b91507f455243313135353a2062616c616e636520717565727920666f7220746865207a60008301527f65726f20616464726573730000000000000000000000000000000000000000006020830152604082019050919050565b6000612bfd602683613641565b91507f4f776e61626c653a206e6577206f776e657220697320746865207a65726f206160008301527f64647265737300000000000000000000000000000000000000000000000000006020830152604082019050919050565b6000612c63602983613641565b91507f455243313135353a2063616c6c6572206973206e6f74206f776e6572206e6f7260008301527f20617070726f76656400000000000000000000000000000000000000000000006020830152604082019050919050565b6000612cc9600f83613641565b91507f496e76616c696420746f6b656e496400000000000000000000000000000000006000830152602082019050919050565b6000612d09601683613641565b91507f4e6f7420656e6f7567682065746820746f206d696e74000000000000000000006000830152602082019050919050565b6000612d49602583613641565b91507f455243313135353a207472616e7366657220746f20746865207a65726f20616460008301527f64726573730000000000000000000000000000000000000000000000000000006020830152604082019050919050565b6000612daf603283613641565b91507f455243313135353a207472616e736665722063616c6c6572206973206e6f742060008301527f6f776e6572206e6f7220617070726f76656400000000000000000000000000006020830152604082019050919050565b6000612e15601d83613641565b91507f5468697320746f6b656e4964206973206f7574206f6620737570706c790000006000830152602082019050919050565b6000612e55602a83613641565b91507f455243313135353a20696e73756666696369656e742062616c616e636520666f60008301527f72207472616e73666572000000000000000000000000000000000000000000006020830152604082019050919050565b6000612ebb600583613652565b91507f2e6a736f6e0000000000000000000000000000000000000000000000000000006000830152600582019050919050565b6000612efb602083613641565b91507f4f776e61626c653a2063616c6c6572206973206e6f7420746865206f776e65726000830152602082019050919050565b6000612f3b602983613641565b91507f455243313135353a2073657474696e6720617070726f76616c2073746174757360008301527f20666f722073656c6600000000000000000000000000000000000000000000006020830152604082019050919050565b6000612fa1602983613641565b91507f455243313135353a206163636f756e747320616e6420696473206c656e67746860008301527f206d69736d6174636800000000000000000000000000000000000000000000006020830152604082019050919050565b6000613007602883613641565b91507f455243313135353a2069647320616e6420616d6f756e7473206c656e6774682060008301527f6d69736d617463680000000000000000000000000000000000000000000000006020830152604082019050919050565b600061306d602183613641565b91507f455243313135353a206d696e7420746f20746865207a65726f2061646472657360008301527f73000000000000000000000000000000000000000000000000000000000000006020830152604082019050919050565b6130cf816137ab565b82525050565b6130de816137ab565b82525050565b60006130f082856129ff565b91506130fc82846129ce565b915061310782612eae565b91508190509392505050565b600060208201905061312860008301846128e0565b92915050565b600060a08201905061314360008301886128e0565b61315060208301876128e0565b818103604083015261316281866128ef565b9050818103606083015261317681856128ef565b9050818103608083015261318a818461295c565b90509695505050505050565b600060a0820190506131ab60008301886128e0565b6131b860208301876128e0565b6131c560408301866130d5565b6131d260608301856130d5565b81810360808301526131e4818461295c565b90509695505050505050565b6000602082019050818103600083015261320a81846128ef565b905092915050565b6000604082019050818103600083015261322c81856128ef565b9050818103602083015261324081846128ef565b90509392505050565b600060208201905061325e600083018461294d565b92915050565b6000602082019050818103600083015261327e8184612995565b905092915050565b6000602082019050818103600083015261329f81612a7e565b9050919050565b600060208201905081810360008301526132bf81612ae4565b9050919050565b600060208201905081810360008301526132df81612b24565b9050919050565b600060208201905081810360008301526132ff81612b8a565b9050919050565b6000602082019050818103600083015261331f81612bf0565b9050919050565b6000602082019050818103600083015261333f81612c56565b9050919050565b6000602082019050818103600083015261335f81612cbc565b9050919050565b6000602082019050818103600083015261337f81612cfc565b9050919050565b6000602082019050818103600083015261339f81612d3c565b9050919050565b600060208201905081810360008301526133bf81612da2565b9050919050565b600060208201905081810360008301526133df81612e08565b9050919050565b600060208201905081810360008301526133ff81612e48565b9050919050565b6000602082019050818103600083015261341f81612eee565b9050919050565b6000602082019050818103600083015261343f81612f2e565b9050919050565b6000602082019050818103600083015261345f81612f94565b9050919050565b6000602082019050818103600083015261347f81612ffa565b9050919050565b6000602082019050818103600083015261349f81613060565b9050919050565b60006020820190506134bb60008301846130d5565b92915050565b60006040820190506134d660008301856130d5565b6134e360208301846128e0565b9392505050565b60006040820190506134ff60008301856130d5565b61350c60208301846130d5565b9392505050565b6000604051905081810181811067ffffffffffffffff8211171561353a576135396138fa565b5b8060405250919050565b600067ffffffffffffffff82111561355f5761355e6138fa565b5b602082029050602081019050919050565b600067ffffffffffffffff82111561358b5761358a6138fa565b5b602082029050602081019050919050565b600067ffffffffffffffff8211156135b7576135b66138fa565b5b601f19601f8301169050602081019050919050565b6000819050602082019050919050565b60008190508160005260206000209050919050565b600081519050919050565b600081519050919050565b600081519050919050565b6000602082019050919050565b600082825260208201905092915050565b600082825260208201905092915050565b600082825260208201905092915050565b600081905092915050565b6000613668826137ab565b9150613673836137ab565b9250827fffffffffffffffffffffffffffffffffffffffffffffffffffffffffffffffff038211156136a8576136a761389c565b5b828201905092915050565b60006136be826137ab565b91506136c9836137ab565b9250817fffffffffffffffffffffffffffffffffffffffffffffffffffffffffffffffff04831182151516156137025761370161389c565b5b828202905092915050565b6000613718826137ab565b9150613723836137ab565b9250828210156137365761373561389c565b5b828203905092915050565b600061374c8261378b565b9050919050565b60008115159050919050565b60007fffffffff0000000000000000000000000000000000000000000000000000000082169050919050565b600073ffffffffffffffffffffffffffffffffffffffff82169050919050565b6000819050919050565b82818337600083830152505050565b60005b838110156137e25780820151818401526020810190506137c7565b838111156137f1576000848401525b50505050565b6000613802826137ab565b915060008214156138165761381561389c565b5b600182039050919050565b6000600282049050600182168061383957607f821691505b6020821081141561384d5761384c6138cb565b5b50919050565b600061385e826137ab565b91507fffffffffffffffffffffffffffffffffffffffffffffffffffffffffffffffff8214156138915761389061389c565b5b600182019050919050565b7f4e487b7100000000000000000000000000000000000000000000000000000000600052601160045260246000fd5b7f4e487b7100000000000000000000000000000000000000000000000000000000600052602260045260246000fd5b7f4e487b7100000000000000000000000000000000000000000000000000000000600052604160045260246000fd5b6000601f19601f8301169050919050565b60008160e01c9050919050565b600060443d1015613957576139fa565b60046000803e61396860005161393a565b6308c379a0811461397957506139fa565b60405160043d036004823e80513d602482011167ffffffffffffffff821117156139a5575050506139fa565b808201805167ffffffffffffffff8111156139c45750505050506139fa565b8060208301013d85018111156139df575050505050506139fa565b6139e882613929565b60208401016040528296505050505050505b90565b613a0681613741565b8114613a1157600080fd5b50565b613a1d81613753565b8114613a2857600080fd5b50565b613a348161375f565b8114613a3f57600080fd5b50565b613a4b816137ab565b8114613a5657600080fd5b5056fea2646970667358221220cfd87ec2423eb66ee6d8c2da5b6de54a5fd8387e83153fab3671c14d6a28852364736f6c63430008000033a264697066735822122074bb8cc2d06b8d1198a95b2c9c906afbf4f9f95ea32a8544f05354d5931ad9f664736f6c63430008000033",
  "immutableReferences": {},
  "source": "// SPDX-License-Identifier: MIT\npragma solidity ^0.8.0;\n\nimport \"@openzeppelin/contracts/access/Ownable.sol\";\nimport \"@openzeppelin/contracts/security/ReentrancyGuard.sol\";\nimport \"./CampaignNFT.sol\";\n\n\ncontract Store is Ownable, ReentrancyGuard {\n    \n    struct Campaign{\n        address creator;\n        address wallet;\n        string name;\n    }\n    uint public _campaign_count;\n    mapping(address => bool) private whitelist; // user in whitelist can create campaign\n    mapping(uint => Campaign) public campaigns;\n    \n    event campaignCreated(uint _campaignId, address _creator, address _wallet, string _name);\n\n    modifier onlyWhitelister() {\n        require(whitelist[msg.sender] == true, \"Ownable: caller is not in the whitelist\");\n        _;\n    }    \n    modifier onlyOwnerOfCampaign(uint _campaignId) {\n        require(msg.sender == campaigns[_campaignId].creator, \"You are not owner of campaign\");\n        _;\n    }\n\n    // whitelist methods\n    function addWhitelister(address _user) external onlyOwner {\n        whitelist[_user] = true;\n    }\n    function removeWhitelister(address _user) external onlyOwner {\n        whitelist[_user] = false;\n    }\n    function isWhitelister(address _user) external view returns (bool) {\n        return whitelist[_user];\n    }\n\n    // campaign methods\n    function createCampaign(string memory _name, uint _price, string memory _baseURI, uint _tokenIds) public onlyWhitelister {\n        CampaignNFT newCampaign = new CampaignNFT(msg.sender, _name, _price, _baseURI, _tokenIds);\n        _campaign_count += 1; \n        campaigns[_campaign_count] = Campaign(msg.sender, address(newCampaign), _name);\n        emit campaignCreated(_campaign_count, msg.sender, address(newCampaign), _name);\n    }\n    \n\n}\n\n",
  "sourcePath": "/Users/mdplus/Workspace/Home/Rada/nft4charity/smartcontract/contracts/Store.sol",
  "compiler": {
    "name": "solc",
    "version": "0.8.0+commit.c7dfd78e.Emscripten.clang"
  },
  "schemaVersion": "3.4.3",
  "updatedAt": "2021-12-18T18:09:44.873Z",
  "networkType": "ethereum",
  "devdoc": {
    "kind": "dev",
    "methods": {
      "owner()": {
        "details": "Returns the address of the current owner."
      },
      "renounceOwnership()": {
        "details": "Leaves the contract without owner. It will not be possible to call `onlyOwner` functions anymore. Can only be called by the current owner. NOTE: Renouncing ownership will leave the contract without an owner, thereby removing any functionality that is only available to the owner."
      },
      "transferOwnership(address)": {
        "details": "Transfers ownership of the contract to a new account (`newOwner`). Can only be called by the current owner."
      }
    },
    "version": 1
  },
  "userdoc": {
    "kind": "user",
    "methods": {},
    "version": 1
  }
}